{
	"contracts/approve denemesi/approve.sol": {
		"approve": {
			"abi": [
				{
					"inputs": [],
					"stateMutability": "nonpayable",
					"type": "constructor"
				},
				{
					"inputs": [],
					"name": "AllowenceFunc",
					"outputs": [
						{
							"internalType": "uint256",
							"name": "",
							"type": "uint256"
						},
						{
							"internalType": "uint256",
							"name": "",
							"type": "uint256"
						}
					],
					"stateMutability": "view",
					"type": "function"
				},
				{
					"inputs": [
						{
							"internalType": "address",
							"name": "_to",
							"type": "address"
						},
						{
							"internalType": "uint256",
							"name": "value",
							"type": "uint256"
						}
					],
					"name": "JustTransferFunc",
					"outputs": [
						{
							"internalType": "bool",
							"name": "",
							"type": "bool"
						}
					],
					"stateMutability": "nonpayable",
					"type": "function"
				},
				{
					"inputs": [],
					"name": "TotalBalance",
					"outputs": [
						{
							"internalType": "uint256",
							"name": "",
							"type": "uint256"
						}
					],
					"stateMutability": "view",
					"type": "function"
				},
				{
					"inputs": [
						{
							"internalType": "address",
							"name": "_to",
							"type": "address"
						},
						{
							"internalType": "uint256",
							"name": "value",
							"type": "uint256"
						}
					],
					"name": "transferfromFunct",
					"outputs": [
						{
							"internalType": "bool",
							"name": "",
							"type": "bool"
						}
					],
					"stateMutability": "nonpayable",
					"type": "function"
				}
			],
			"devdoc": {
				"kind": "dev",
				"methods": {},
				"version": 1
			},
			"evm": {
				"assembly": "    /* \"contracts/approve denemesi/approve.sol\":114:1943  contract approve {... */\n  mstore(0x40, 0x80)\n    /* \"contracts/approve denemesi/approve.sol\":404:446  0x4144BF680c5D5B5a1409eF63778e003eC3220E5B */\n  0x4144bf680c5d5b5a1409ef63778e003ec3220e5b\n    /* \"contracts/approve denemesi/approve.sol\":381:446  address tokenAddress = 0x4144BF680c5D5B5a1409eF63778e003eC3220E5B */\n  0x01\n  exp(0x0100, 0x00)\n  dup2\n  sload\n  dup2\n  0xffffffffffffffffffffffffffffffffffffffff\n  mul\n  not\n  and\n  swap1\n  dup4\n  0xffffffffffffffffffffffffffffffffffffffff\n  and\n  mul\n  or\n  swap1\n  sstore\n  pop\n    /* \"contracts/approve denemesi/approve.sol\":470:529  constructor() {... */\n  callvalue\n  dup1\n  iszero\n  tag_1\n  jumpi\n  revert(0x00, 0x00)\ntag_1:\n  pop\n    /* \"contracts/approve denemesi/approve.sol\":508:520  tokenAddress */\n  0x01\n  0x00\n  swap1\n  sload\n  swap1\n  0x0100\n  exp\n  swap1\n  div\n  0xffffffffffffffffffffffffffffffffffffffff\n  and\n    /* \"contracts/approve denemesi/approve.sol\":494:499  token */\n  0x02\n  0x00\n    /* \"contracts/approve denemesi/approve.sol\":494:521  token= IERC20(tokenAddress) */\n  0x0100\n  exp\n  dup2\n  sload\n  dup2\n  0xffffffffffffffffffffffffffffffffffffffff\n  mul\n  not\n  and\n  swap1\n  dup4\n  0xffffffffffffffffffffffffffffffffffffffff\n  and\n  mul\n  or\n  swap1\n  sstore\n  pop\n    /* \"contracts/approve denemesi/approve.sol\":114:1943  contract approve {... */\n  dataSize(sub_0)\n  dup1\n  dataOffset(sub_0)\n  0x00\n  codecopy\n  0x00\n  return\nstop\n\nsub_0: assembly {\n        /* \"contracts/approve denemesi/approve.sol\":114:1943  contract approve {... */\n      mstore(0x40, 0x80)\n      callvalue\n      dup1\n      iszero\n      tag_1\n      jumpi\n      revert(0x00, 0x00)\n    tag_1:\n      pop\n      jumpi(tag_2, lt(calldatasize, 0x04))\n      shr(0xe0, calldataload(0x00))\n      dup1\n      0x0c4397\n      eq\n      tag_3\n      jumpi\n      dup1\n      0x46207da8\n      eq\n      tag_4\n      jumpi\n      dup1\n      0xc9e369c1\n      eq\n      tag_5\n      jumpi\n      dup1\n      0xfb2ab9b0\n      eq\n      tag_6\n      jumpi\n    tag_2:\n      revert(0x00, 0x00)\n        /* \"contracts/approve denemesi/approve.sol\":190:215  uint public  TotalBalance */\n    tag_3:\n      tag_7\n      tag_8\n      jump\t// in\n    tag_7:\n      mload(0x40)\n      tag_9\n      swap2\n      swap1\n      tag_10\n      jump\t// in\n    tag_9:\n      mload(0x40)\n      dup1\n      swap2\n      sub\n      swap1\n      return\n        /* \"contracts/approve denemesi/approve.sol\":1143:1324  function AllowenceFunc() public view  returns(uint,uint){... */\n    tag_4:\n      tag_11\n      tag_12\n      jump\t// in\n    tag_11:\n      mload(0x40)\n      tag_13\n      swap3\n      swap2\n      swap1\n      tag_14\n      jump\t// in\n    tag_13:\n      mload(0x40)\n      dup1\n      swap2\n      sub\n      swap1\n      return\n        /* \"contracts/approve denemesi/approve.sol\":538:754  function transferfromFunct(address _to,uint value) public returns(bool) {... */\n    tag_5:\n      tag_15\n      0x04\n      dup1\n      calldatasize\n      sub\n      dup2\n      add\n      swap1\n      tag_16\n      swap2\n      swap1\n      tag_17\n      jump\t// in\n    tag_16:\n      tag_18\n      jump\t// in\n    tag_15:\n      mload(0x40)\n      tag_19\n      swap2\n      swap1\n      tag_20\n      jump\t// in\n    tag_19:\n      mload(0x40)\n      dup1\n      swap2\n      sub\n      swap1\n      return\n        /* \"contracts/approve denemesi/approve.sol\":866:1138  function JustTransferFunc(address _to,uint value) public returns(bool)... */\n    tag_6:\n      tag_21\n      0x04\n      dup1\n      calldatasize\n      sub\n      dup2\n      add\n      swap1\n      tag_22\n      swap2\n      swap1\n      tag_17\n      jump\t// in\n    tag_22:\n      tag_23\n      jump\t// in\n    tag_21:\n      mload(0x40)\n      tag_24\n      swap2\n      swap1\n      tag_20\n      jump\t// in\n    tag_24:\n      mload(0x40)\n      dup1\n      swap2\n      sub\n      swap1\n      return\n        /* \"contracts/approve denemesi/approve.sol\":190:215  uint public  TotalBalance */\n    tag_8:\n      sload(0x00)\n      dup2\n      jump\t// out\n        /* \"contracts/approve denemesi/approve.sol\":1143:1324  function AllowenceFunc() public view  returns(uint,uint){... */\n    tag_12:\n        /* \"contracts/approve denemesi/approve.sol\":1189:1193  uint */\n      0x00\n        /* \"contracts/approve denemesi/approve.sol\":1194:1198  uint */\n      0x00\n        /* \"contracts/approve denemesi/approve.sol\":1209:1220  uint tokens */\n      0x00\n        /* \"contracts/approve denemesi/approve.sol\":1222:1227  token */\n      0x02\n      0x00\n      swap1\n      sload\n      swap1\n      0x0100\n      exp\n      swap1\n      div\n      0xffffffffffffffffffffffffffffffffffffffff\n      and\n        /* \"contracts/approve denemesi/approve.sol\":1222:1237  token.balanceOf */\n      0xffffffffffffffffffffffffffffffffffffffff\n      and\n      0x70a08231\n        /* \"contracts/approve denemesi/approve.sol\":1238:1248  msg.sender */\n      caller\n        /* \"contracts/approve denemesi/approve.sol\":1222:1249  token.balanceOf(msg.sender) */\n      mload(0x40)\n      dup3\n      0xffffffff\n      and\n      0xe0\n      shl\n      dup2\n      mstore\n      0x04\n      add\n      tag_26\n      swap2\n      swap1\n      tag_27\n      jump\t// in\n    tag_26:\n      0x20\n      mload(0x40)\n      dup1\n      dup4\n      sub\n      dup2\n      dup7\n      gas\n      staticcall\n      iszero\n      dup1\n      iszero\n      tag_29\n      jumpi\n      returndatacopy(0x00, 0x00, returndatasize)\n      revert(0x00, returndatasize)\n    tag_29:\n      pop\n      pop\n      pop\n      pop\n      mload(0x40)\n      returndatasize\n      not(0x1f)\n      0x1f\n      dup3\n      add\n      and\n      dup3\n      add\n      dup1\n      0x40\n      mstore\n      pop\n      dup2\n      add\n      swap1\n      tag_30\n      swap2\n      swap1\n      tag_31\n      jump\t// in\n    tag_30:\n        /* \"contracts/approve denemesi/approve.sol\":1209:1249  uint tokens= token.balanceOf(msg.sender) */\n      swap1\n      pop\n        /* \"contracts/approve denemesi/approve.sol\":1267:1272  token */\n      0x02\n      0x00\n      swap1\n      sload\n      swap1\n      0x0100\n      exp\n      swap1\n      div\n      0xffffffffffffffffffffffffffffffffffffffff\n      and\n        /* \"contracts/approve denemesi/approve.sol\":1267:1282  token.allowance */\n      0xffffffffffffffffffffffffffffffffffffffff\n      and\n      0xdd62ed3e\n        /* \"contracts/approve denemesi/approve.sol\":1283:1293  msg.sender */\n      caller\n        /* \"contracts/approve denemesi/approve.sol\":1302:1306  this */\n      address\n        /* \"contracts/approve denemesi/approve.sol\":1267:1309  token.allowance(msg.sender,address(this) ) */\n      mload(0x40)\n      dup4\n      0xffffffff\n      and\n      0xe0\n      shl\n      dup2\n      mstore\n      0x04\n      add\n      tag_32\n      swap3\n      swap2\n      swap1\n      tag_33\n      jump\t// in\n    tag_32:\n      0x20\n      mload(0x40)\n      dup1\n      dup4\n      sub\n      dup2\n      dup7\n      gas\n      staticcall\n      iszero\n      dup1\n      iszero\n      tag_35\n      jumpi\n      returndatacopy(0x00, 0x00, returndatasize)\n      revert(0x00, returndatasize)\n    tag_35:\n      pop\n      pop\n      pop\n      pop\n      mload(0x40)\n      returndatasize\n      not(0x1f)\n      0x1f\n      dup3\n      add\n      and\n      dup3\n      add\n      dup1\n      0x40\n      mstore\n      pop\n      dup2\n      add\n      swap1\n      tag_36\n      swap2\n      swap1\n      tag_31\n      jump\t// in\n    tag_36:\n        /* \"contracts/approve denemesi/approve.sol\":1310:1316  tokens */\n      dup2\n        /* \"contracts/approve denemesi/approve.sol\":1259:1317  return (token.allowance(msg.sender,address(this) ),tokens) */\n      swap3\n      pop\n      swap3\n      pop\n      pop\n        /* \"contracts/approve denemesi/approve.sol\":1143:1324  function AllowenceFunc() public view  returns(uint,uint){... */\n      swap1\n      swap2\n      jump\t// out\n        /* \"contracts/approve denemesi/approve.sol\":538:754  function transferfromFunct(address _to,uint value) public returns(bool) {... */\n    tag_18:\n        /* \"contracts/approve denemesi/approve.sol\":604:608  bool */\n      0x00\n        /* \"contracts/approve denemesi/approve.sol\":674:679  value */\n      dup2\n        /* \"contracts/approve denemesi/approve.sol\":628:633  token */\n      0x02\n      0x00\n      swap1\n      sload\n      swap1\n      0x0100\n      exp\n      swap1\n      div\n      0xffffffffffffffffffffffffffffffffffffffff\n      and\n        /* \"contracts/approve denemesi/approve.sol\":628:643  token.allowance */\n      0xffffffffffffffffffffffffffffffffffffffff\n      and\n      0xdd62ed3e\n        /* \"contracts/approve denemesi/approve.sol\":644:654  msg.sender */\n      caller\n        /* \"contracts/approve denemesi/approve.sol\":664:668  this */\n      address\n        /* \"contracts/approve denemesi/approve.sol\":628:670  token.allowance(msg.sender, address(this)) */\n      mload(0x40)\n      dup4\n      0xffffffff\n      and\n      0xe0\n      shl\n      dup2\n      mstore\n      0x04\n      add\n      tag_38\n      swap3\n      swap2\n      swap1\n      tag_33\n      jump\t// in\n    tag_38:\n      0x20\n      mload(0x40)\n      dup1\n      dup4\n      sub\n      dup2\n      dup7\n      gas\n      staticcall\n      iszero\n      dup1\n      iszero\n      tag_40\n      jumpi\n      returndatacopy(0x00, 0x00, returndatasize)\n      revert(0x00, returndatasize)\n    tag_40:\n      pop\n      pop\n      pop\n      pop\n      mload(0x40)\n      returndatasize\n      not(0x1f)\n      0x1f\n      dup3\n      add\n      and\n      dup3\n      add\n      dup1\n      0x40\n      mstore\n      pop\n      dup2\n      add\n      swap1\n      tag_41\n      swap2\n      swap1\n      tag_31\n      jump\t// in\n    tag_41:\n        /* \"contracts/approve denemesi/approve.sol\":628:679  token.allowance(msg.sender, address(this)) >= value */\n      lt\n      iszero\n        /* \"contracts/approve denemesi/approve.sol\":620:680  require(token.allowance(msg.sender, address(this)) >= value) */\n      tag_42\n      jumpi\n      revert(0x00, 0x00)\n    tag_42:\n        /* \"contracts/approve denemesi/approve.sol\":697:702  token */\n      0x02\n      0x00\n      swap1\n      sload\n      swap1\n      0x0100\n      exp\n      swap1\n      div\n      0xffffffffffffffffffffffffffffffffffffffff\n      and\n        /* \"contracts/approve denemesi/approve.sol\":697:715  token.transferFrom */\n      0xffffffffffffffffffffffffffffffffffffffff\n      and\n      0x23b872dd\n        /* \"contracts/approve denemesi/approve.sol\":716:726  msg.sender */\n      caller\n        /* \"contracts/approve denemesi/approve.sol\":728:731  _to */\n      dup6\n        /* \"contracts/approve denemesi/approve.sol\":733:738  value */\n      dup6\n        /* \"contracts/approve denemesi/approve.sol\":697:739  token.transferFrom(msg.sender, _to, value) */\n      mload(0x40)\n      dup5\n      0xffffffff\n      and\n      0xe0\n      shl\n      dup2\n      mstore\n      0x04\n      add\n      tag_43\n      swap4\n      swap3\n      swap2\n      swap1\n      tag_44\n      jump\t// in\n    tag_43:\n      0x20\n      mload(0x40)\n      dup1\n      dup4\n      sub\n      dup2\n      0x00\n      dup8\n      gas\n      call\n      iszero\n      dup1\n      iszero\n      tag_46\n      jumpi\n      returndatacopy(0x00, 0x00, returndatasize)\n      revert(0x00, returndatasize)\n    tag_46:\n      pop\n      pop\n      pop\n      pop\n      mload(0x40)\n      returndatasize\n      not(0x1f)\n      0x1f\n      dup3\n      add\n      and\n      dup3\n      add\n      dup1\n      0x40\n      mstore\n      pop\n      dup2\n      add\n      swap1\n      tag_47\n      swap2\n      swap1\n      tag_48\n      jump\t// in\n    tag_47:\n        /* \"contracts/approve denemesi/approve.sol\":690:739  return token.transferFrom(msg.sender, _to, value) */\n      swap1\n      pop\n        /* \"contracts/approve denemesi/approve.sol\":538:754  function transferfromFunct(address _to,uint value) public returns(bool) {... */\n      swap3\n      swap2\n      pop\n      pop\n      jump\t// out\n        /* \"contracts/approve denemesi/approve.sol\":866:1138  function JustTransferFunc(address _to,uint value) public returns(bool)... */\n    tag_23:\n        /* \"contracts/approve denemesi/approve.sol\":931:935  bool */\n      0x00\n        /* \"contracts/approve denemesi/approve.sol\":1008:1013  value */\n      dup2\n        /* \"contracts/approve denemesi/approve.sol\":993:1005  TotalBalance */\n      sload(0x00)\n        /* \"contracts/approve denemesi/approve.sol\":993:1013  TotalBalance + value */\n      tag_50\n      swap2\n      swap1\n      tag_51\n      jump\t// in\n    tag_50:\n        /* \"contracts/approve denemesi/approve.sol\":958:963  token */\n      0x02\n      0x00\n      swap1\n      sload\n      swap1\n      0x0100\n      exp\n      swap1\n      div\n      0xffffffffffffffffffffffffffffffffffffffff\n      and\n        /* \"contracts/approve denemesi/approve.sol\":958:973  token.balanceOf */\n      0xffffffffffffffffffffffffffffffffffffffff\n      and\n      0x70a08231\n        /* \"contracts/approve denemesi/approve.sol\":982:986  this */\n      address\n        /* \"contracts/approve denemesi/approve.sol\":958:989  token.balanceOf(address(this) ) */\n      mload(0x40)\n      dup3\n      0xffffffff\n      and\n      0xe0\n      shl\n      dup2\n      mstore\n      0x04\n      add\n      tag_52\n      swap2\n      swap1\n      tag_27\n      jump\t// in\n    tag_52:\n      0x20\n      mload(0x40)\n      dup1\n      dup4\n      sub\n      dup2\n      dup7\n      gas\n      staticcall\n      iszero\n      dup1\n      iszero\n      tag_54\n      jumpi\n      returndatacopy(0x00, 0x00, returndatasize)\n      revert(0x00, returndatasize)\n    tag_54:\n      pop\n      pop\n      pop\n      pop\n      mload(0x40)\n      returndatasize\n      not(0x1f)\n      0x1f\n      dup3\n      add\n      and\n      dup3\n      add\n      dup1\n      0x40\n      mstore\n      pop\n      dup2\n      add\n      swap1\n      tag_55\n      swap2\n      swap1\n      tag_31\n      jump\t// in\n    tag_55:\n        /* \"contracts/approve denemesi/approve.sol\":958:1013  token.balanceOf(address(this) ) >= TotalBalance + value */\n      lt\n      iszero\n        /* \"contracts/approve denemesi/approve.sol\":950:1014  require(token.balanceOf(address(this) ) >= TotalBalance + value) */\n      tag_56\n      jumpi\n      revert(0x00, 0x00)\n    tag_56:\n        /* \"contracts/approve denemesi/approve.sol\":1071:1076  value */\n      dup2\n        /* \"contracts/approve denemesi/approve.sol\":1038:1043  token */\n      0x02\n      0x00\n      swap1\n      sload\n      swap1\n      0x0100\n      exp\n      swap1\n      div\n      0xffffffffffffffffffffffffffffffffffffffff\n      and\n        /* \"contracts/approve denemesi/approve.sol\":1038:1053  token.balanceOf */\n      0xffffffffffffffffffffffffffffffffffffffff\n      and\n      0x70a08231\n        /* \"contracts/approve denemesi/approve.sol\":1062:1066  this */\n      address\n        /* \"contracts/approve denemesi/approve.sol\":1038:1068  token.balanceOf(address(this)) */\n      mload(0x40)\n      dup3\n      0xffffffff\n      and\n      0xe0\n      shl\n      dup2\n      mstore\n      0x04\n      add\n      tag_57\n      swap2\n      swap1\n      tag_27\n      jump\t// in\n    tag_57:\n      0x20\n      mload(0x40)\n      dup1\n      dup4\n      sub\n      dup2\n      dup7\n      gas\n      staticcall\n      iszero\n      dup1\n      iszero\n      tag_59\n      jumpi\n      returndatacopy(0x00, 0x00, returndatasize)\n      revert(0x00, returndatasize)\n    tag_59:\n      pop\n      pop\n      pop\n      pop\n      mload(0x40)\n      returndatasize\n      not(0x1f)\n      0x1f\n      dup3\n      add\n      and\n      dup3\n      add\n      dup1\n      0x40\n      mstore\n      pop\n      dup2\n      add\n      swap1\n      tag_60\n      swap2\n      swap1\n      tag_31\n      jump\t// in\n    tag_60:\n        /* \"contracts/approve denemesi/approve.sol\":1038:1076  token.balanceOf(address(this)) - value */\n      tag_61\n      swap2\n      swap1\n      tag_62\n      jump\t// in\n    tag_61:\n        /* \"contracts/approve denemesi/approve.sol\":1023:1035  TotalBalance */\n      0x00\n        /* \"contracts/approve denemesi/approve.sol\":1023:1076  TotalBalance = token.balanceOf(address(this)) - value */\n      dup2\n      swap1\n      sstore\n      pop\n        /* \"contracts/approve denemesi/approve.sol\":1085:1090  token */\n      0x02\n      0x00\n      swap1\n      sload\n      swap1\n      0x0100\n      exp\n      swap1\n      div\n      0xffffffffffffffffffffffffffffffffffffffff\n      and\n        /* \"contracts/approve denemesi/approve.sol\":1085:1099  token.transfer */\n      0xffffffffffffffffffffffffffffffffffffffff\n      and\n      0xa9059cbb\n        /* \"contracts/approve denemesi/approve.sol\":1100:1103  _to */\n      dup5\n        /* \"contracts/approve denemesi/approve.sol\":1105:1110  value */\n      dup5\n        /* \"contracts/approve denemesi/approve.sol\":1085:1111  token.transfer(_to, value) */\n      mload(0x40)\n      dup4\n      0xffffffff\n      and\n      0xe0\n      shl\n      dup2\n      mstore\n      0x04\n      add\n      tag_63\n      swap3\n      swap2\n      swap1\n      tag_64\n      jump\t// in\n    tag_63:\n      0x20\n      mload(0x40)\n      dup1\n      dup4\n      sub\n      dup2\n      0x00\n      dup8\n      gas\n      call\n      iszero\n      dup1\n      iszero\n      tag_66\n      jumpi\n      returndatacopy(0x00, 0x00, returndatasize)\n      revert(0x00, returndatasize)\n    tag_66:\n      pop\n      pop\n      pop\n      pop\n      mload(0x40)\n      returndatasize\n      not(0x1f)\n      0x1f\n      dup3\n      add\n      and\n      dup3\n      add\n      dup1\n      0x40\n      mstore\n      pop\n      dup2\n      add\n      swap1\n      tag_67\n      swap2\n      swap1\n      tag_48\n      jump\t// in\n    tag_67:\n      pop\n        /* \"contracts/approve denemesi/approve.sol\":1127:1131  true */\n      0x01\n        /* \"contracts/approve denemesi/approve.sol\":1120:1131  return true */\n      swap1\n      pop\n        /* \"contracts/approve denemesi/approve.sol\":866:1138  function JustTransferFunc(address _to,uint value) public returns(bool)... */\n      swap3\n      swap2\n      pop\n      pop\n      jump\t// out\n        /* \"#utility.yul\":7:84   */\n    tag_68:\n        /* \"#utility.yul\":44:51   */\n      0x00\n        /* \"#utility.yul\":73:78   */\n      dup2\n        /* \"#utility.yul\":62:78   */\n      swap1\n      pop\n        /* \"#utility.yul\":7:84   */\n      swap2\n      swap1\n      pop\n      jump\t// out\n        /* \"#utility.yul\":90:208   */\n    tag_69:\n        /* \"#utility.yul\":177:201   */\n      tag_89\n        /* \"#utility.yul\":195:200   */\n      dup2\n        /* \"#utility.yul\":177:201   */\n      tag_68\n      jump\t// in\n    tag_89:\n        /* \"#utility.yul\":172:175   */\n      dup3\n        /* \"#utility.yul\":165:202   */\n      mstore\n        /* \"#utility.yul\":90:208   */\n      pop\n      pop\n      jump\t// out\n        /* \"#utility.yul\":214:436   */\n    tag_10:\n        /* \"#utility.yul\":307:311   */\n      0x00\n        /* \"#utility.yul\":345:347   */\n      0x20\n        /* \"#utility.yul\":334:343   */\n      dup3\n        /* \"#utility.yul\":330:348   */\n      add\n        /* \"#utility.yul\":322:348   */\n      swap1\n      pop\n        /* \"#utility.yul\":358:429   */\n      tag_91\n        /* \"#utility.yul\":426:427   */\n      0x00\n        /* \"#utility.yul\":415:424   */\n      dup4\n        /* \"#utility.yul\":411:428   */\n      add\n        /* \"#utility.yul\":402:408   */\n      dup5\n        /* \"#utility.yul\":358:429   */\n      tag_69\n      jump\t// in\n    tag_91:\n        /* \"#utility.yul\":214:436   */\n      swap3\n      swap2\n      pop\n      pop\n      jump\t// out\n        /* \"#utility.yul\":442:774   */\n    tag_14:\n        /* \"#utility.yul\":563:567   */\n      0x00\n        /* \"#utility.yul\":601:603   */\n      0x40\n        /* \"#utility.yul\":590:599   */\n      dup3\n        /* \"#utility.yul\":586:604   */\n      add\n        /* \"#utility.yul\":578:604   */\n      swap1\n      pop\n        /* \"#utility.yul\":614:685   */\n      tag_93\n        /* \"#utility.yul\":682:683   */\n      0x00\n        /* \"#utility.yul\":671:680   */\n      dup4\n        /* \"#utility.yul\":667:684   */\n      add\n        /* \"#utility.yul\":658:664   */\n      dup6\n        /* \"#utility.yul\":614:685   */\n      tag_69\n      jump\t// in\n    tag_93:\n        /* \"#utility.yul\":695:767   */\n      tag_94\n        /* \"#utility.yul\":763:765   */\n      0x20\n        /* \"#utility.yul\":752:761   */\n      dup4\n        /* \"#utility.yul\":748:766   */\n      add\n        /* \"#utility.yul\":739:745   */\n      dup5\n        /* \"#utility.yul\":695:767   */\n      tag_69\n      jump\t// in\n    tag_94:\n        /* \"#utility.yul\":442:774   */\n      swap4\n      swap3\n      pop\n      pop\n      pop\n      jump\t// out\n        /* \"#utility.yul\":861:978   */\n    tag_71:\n        /* \"#utility.yul\":970:971   */\n      0x00\n        /* \"#utility.yul\":967:968   */\n      0x00\n        /* \"#utility.yul\":960:972   */\n      revert\n        /* \"#utility.yul\":1107:1233   */\n    tag_73:\n        /* \"#utility.yul\":1144:1151   */\n      0x00\n        /* \"#utility.yul\":1184:1226   */\n      0xffffffffffffffffffffffffffffffffffffffff\n        /* \"#utility.yul\":1177:1182   */\n      dup3\n        /* \"#utility.yul\":1173:1227   */\n      and\n        /* \"#utility.yul\":1162:1227   */\n      swap1\n      pop\n        /* \"#utility.yul\":1107:1233   */\n      swap2\n      swap1\n      pop\n      jump\t// out\n        /* \"#utility.yul\":1239:1335   */\n    tag_74:\n        /* \"#utility.yul\":1276:1283   */\n      0x00\n        /* \"#utility.yul\":1305:1329   */\n      tag_100\n        /* \"#utility.yul\":1323:1328   */\n      dup3\n        /* \"#utility.yul\":1305:1329   */\n      tag_73\n      jump\t// in\n    tag_100:\n        /* \"#utility.yul\":1294:1329   */\n      swap1\n      pop\n        /* \"#utility.yul\":1239:1335   */\n      swap2\n      swap1\n      pop\n      jump\t// out\n        /* \"#utility.yul\":1341:1463   */\n    tag_75:\n        /* \"#utility.yul\":1414:1438   */\n      tag_102\n        /* \"#utility.yul\":1432:1437   */\n      dup2\n        /* \"#utility.yul\":1414:1438   */\n      tag_74\n      jump\t// in\n    tag_102:\n        /* \"#utility.yul\":1407:1412   */\n      dup2\n        /* \"#utility.yul\":1404:1439   */\n      eq\n        /* \"#utility.yul\":1394:1457   */\n      tag_103\n      jumpi\n        /* \"#utility.yul\":1453:1454   */\n      0x00\n        /* \"#utility.yul\":1450:1451   */\n      0x00\n        /* \"#utility.yul\":1443:1455   */\n      revert\n        /* \"#utility.yul\":1394:1457   */\n    tag_103:\n        /* \"#utility.yul\":1341:1463   */\n      pop\n      jump\t// out\n        /* \"#utility.yul\":1469:1608   */\n    tag_76:\n        /* \"#utility.yul\":1515:1520   */\n      0x00\n        /* \"#utility.yul\":1553:1559   */\n      dup2\n        /* \"#utility.yul\":1540:1560   */\n      calldataload\n        /* \"#utility.yul\":1531:1560   */\n      swap1\n      pop\n        /* \"#utility.yul\":1569:1602   */\n      tag_105\n        /* \"#utility.yul\":1596:1601   */\n      dup2\n        /* \"#utility.yul\":1569:1602   */\n      tag_75\n      jump\t// in\n    tag_105:\n        /* \"#utility.yul\":1469:1608   */\n      swap3\n      swap2\n      pop\n      pop\n      jump\t// out\n        /* \"#utility.yul\":1614:1736   */\n    tag_77:\n        /* \"#utility.yul\":1687:1711   */\n      tag_107\n        /* \"#utility.yul\":1705:1710   */\n      dup2\n        /* \"#utility.yul\":1687:1711   */\n      tag_68\n      jump\t// in\n    tag_107:\n        /* \"#utility.yul\":1680:1685   */\n      dup2\n        /* \"#utility.yul\":1677:1712   */\n      eq\n        /* \"#utility.yul\":1667:1730   */\n      tag_108\n      jumpi\n        /* \"#utility.yul\":1726:1727   */\n      0x00\n        /* \"#utility.yul\":1723:1724   */\n      0x00\n        /* \"#utility.yul\":1716:1728   */\n      revert\n        /* \"#utility.yul\":1667:1730   */\n    tag_108:\n        /* \"#utility.yul\":1614:1736   */\n      pop\n      jump\t// out\n        /* \"#utility.yul\":1742:1881   */\n    tag_78:\n        /* \"#utility.yul\":1788:1793   */\n      0x00\n        /* \"#utility.yul\":1826:1832   */\n      dup2\n        /* \"#utility.yul\":1813:1833   */\n      calldataload\n        /* \"#utility.yul\":1804:1833   */\n      swap1\n      pop\n        /* \"#utility.yul\":1842:1875   */\n      tag_110\n        /* \"#utility.yul\":1869:1874   */\n      dup2\n        /* \"#utility.yul\":1842:1875   */\n      tag_77\n      jump\t// in\n    tag_110:\n        /* \"#utility.yul\":1742:1881   */\n      swap3\n      swap2\n      pop\n      pop\n      jump\t// out\n        /* \"#utility.yul\":1887:2361   */\n    tag_17:\n        /* \"#utility.yul\":1955:1961   */\n      0x00\n        /* \"#utility.yul\":1963:1969   */\n      0x00\n        /* \"#utility.yul\":2012:2014   */\n      0x40\n        /* \"#utility.yul\":2000:2009   */\n      dup4\n        /* \"#utility.yul\":1991:1998   */\n      dup6\n        /* \"#utility.yul\":1987:2010   */\n      sub\n        /* \"#utility.yul\":1983:2015   */\n      slt\n        /* \"#utility.yul\":1980:2099   */\n      iszero\n      tag_112\n      jumpi\n        /* \"#utility.yul\":2018:2097   */\n      tag_113\n      tag_71\n      jump\t// in\n    tag_113:\n        /* \"#utility.yul\":1980:2099   */\n    tag_112:\n        /* \"#utility.yul\":2138:2139   */\n      0x00\n        /* \"#utility.yul\":2163:2216   */\n      tag_114\n        /* \"#utility.yul\":2208:2215   */\n      dup6\n        /* \"#utility.yul\":2199:2205   */\n      dup3\n        /* \"#utility.yul\":2188:2197   */\n      dup7\n        /* \"#utility.yul\":2184:2206   */\n      add\n        /* \"#utility.yul\":2163:2216   */\n      tag_76\n      jump\t// in\n    tag_114:\n        /* \"#utility.yul\":2153:2216   */\n      swap3\n      pop\n        /* \"#utility.yul\":2109:2226   */\n      pop\n        /* \"#utility.yul\":2265:2267   */\n      0x20\n        /* \"#utility.yul\":2291:2344   */\n      tag_115\n        /* \"#utility.yul\":2336:2343   */\n      dup6\n        /* \"#utility.yul\":2327:2333   */\n      dup3\n        /* \"#utility.yul\":2316:2325   */\n      dup7\n        /* \"#utility.yul\":2312:2334   */\n      add\n        /* \"#utility.yul\":2291:2344   */\n      tag_78\n      jump\t// in\n    tag_115:\n        /* \"#utility.yul\":2281:2344   */\n      swap2\n      pop\n        /* \"#utility.yul\":2236:2354   */\n      pop\n        /* \"#utility.yul\":1887:2361   */\n      swap3\n      pop\n      swap3\n      swap1\n      pop\n      jump\t// out\n        /* \"#utility.yul\":2367:2457   */\n    tag_79:\n        /* \"#utility.yul\":2401:2408   */\n      0x00\n        /* \"#utility.yul\":2444:2449   */\n      dup2\n        /* \"#utility.yul\":2437:2450   */\n      iszero\n        /* \"#utility.yul\":2430:2451   */\n      iszero\n        /* \"#utility.yul\":2419:2451   */\n      swap1\n      pop\n        /* \"#utility.yul\":2367:2457   */\n      swap2\n      swap1\n      pop\n      jump\t// out\n        /* \"#utility.yul\":2463:2572   */\n    tag_80:\n        /* \"#utility.yul\":2544:2565   */\n      tag_118\n        /* \"#utility.yul\":2559:2564   */\n      dup2\n        /* \"#utility.yul\":2544:2565   */\n      tag_79\n      jump\t// in\n    tag_118:\n        /* \"#utility.yul\":2539:2542   */\n      dup3\n        /* \"#utility.yul\":2532:2566   */\n      mstore\n        /* \"#utility.yul\":2463:2572   */\n      pop\n      pop\n      jump\t// out\n        /* \"#utility.yul\":2578:2788   */\n    tag_20:\n        /* \"#utility.yul\":2665:2669   */\n      0x00\n        /* \"#utility.yul\":2703:2705   */\n      0x20\n        /* \"#utility.yul\":2692:2701   */\n      dup3\n        /* \"#utility.yul\":2688:2706   */\n      add\n        /* \"#utility.yul\":2680:2706   */\n      swap1\n      pop\n        /* \"#utility.yul\":2716:2781   */\n      tag_120\n        /* \"#utility.yul\":2778:2779   */\n      0x00\n        /* \"#utility.yul\":2767:2776   */\n      dup4\n        /* \"#utility.yul\":2763:2780   */\n      add\n        /* \"#utility.yul\":2754:2760   */\n      dup5\n        /* \"#utility.yul\":2716:2781   */\n      tag_80\n      jump\t// in\n    tag_120:\n        /* \"#utility.yul\":2578:2788   */\n      swap3\n      swap2\n      pop\n      pop\n      jump\t// out\n        /* \"#utility.yul\":2794:2912   */\n    tag_81:\n        /* \"#utility.yul\":2881:2905   */\n      tag_122\n        /* \"#utility.yul\":2899:2904   */\n      dup2\n        /* \"#utility.yul\":2881:2905   */\n      tag_74\n      jump\t// in\n    tag_122:\n        /* \"#utility.yul\":2876:2879   */\n      dup3\n        /* \"#utility.yul\":2869:2906   */\n      mstore\n        /* \"#utility.yul\":2794:2912   */\n      pop\n      pop\n      jump\t// out\n        /* \"#utility.yul\":2918:3140   */\n    tag_27:\n        /* \"#utility.yul\":3011:3015   */\n      0x00\n        /* \"#utility.yul\":3049:3051   */\n      0x20\n        /* \"#utility.yul\":3038:3047   */\n      dup3\n        /* \"#utility.yul\":3034:3052   */\n      add\n        /* \"#utility.yul\":3026:3052   */\n      swap1\n      pop\n        /* \"#utility.yul\":3062:3133   */\n      tag_124\n        /* \"#utility.yul\":3130:3131   */\n      0x00\n        /* \"#utility.yul\":3119:3128   */\n      dup4\n        /* \"#utility.yul\":3115:3132   */\n      add\n        /* \"#utility.yul\":3106:3112   */\n      dup5\n        /* \"#utility.yul\":3062:3133   */\n      tag_81\n      jump\t// in\n    tag_124:\n        /* \"#utility.yul\":2918:3140   */\n      swap3\n      swap2\n      pop\n      pop\n      jump\t// out\n        /* \"#utility.yul\":3146:3289   */\n    tag_82:\n        /* \"#utility.yul\":3203:3208   */\n      0x00\n        /* \"#utility.yul\":3234:3240   */\n      dup2\n        /* \"#utility.yul\":3228:3241   */\n      mload\n        /* \"#utility.yul\":3219:3241   */\n      swap1\n      pop\n        /* \"#utility.yul\":3250:3283   */\n      tag_126\n        /* \"#utility.yul\":3277:3282   */\n      dup2\n        /* \"#utility.yul\":3250:3283   */\n      tag_77\n      jump\t// in\n    tag_126:\n        /* \"#utility.yul\":3146:3289   */\n      swap3\n      swap2\n      pop\n      pop\n      jump\t// out\n        /* \"#utility.yul\":3295:3646   */\n    tag_31:\n        /* \"#utility.yul\":3365:3371   */\n      0x00\n        /* \"#utility.yul\":3414:3416   */\n      0x20\n        /* \"#utility.yul\":3402:3411   */\n      dup3\n        /* \"#utility.yul\":3393:3400   */\n      dup5\n        /* \"#utility.yul\":3389:3412   */\n      sub\n        /* \"#utility.yul\":3385:3417   */\n      slt\n        /* \"#utility.yul\":3382:3501   */\n      iszero\n      tag_128\n      jumpi\n        /* \"#utility.yul\":3420:3499   */\n      tag_129\n      tag_71\n      jump\t// in\n    tag_129:\n        /* \"#utility.yul\":3382:3501   */\n    tag_128:\n        /* \"#utility.yul\":3540:3541   */\n      0x00\n        /* \"#utility.yul\":3565:3629   */\n      tag_130\n        /* \"#utility.yul\":3621:3628   */\n      dup5\n        /* \"#utility.yul\":3612:3618   */\n      dup3\n        /* \"#utility.yul\":3601:3610   */\n      dup6\n        /* \"#utility.yul\":3597:3619   */\n      add\n        /* \"#utility.yul\":3565:3629   */\n      tag_82\n      jump\t// in\n    tag_130:\n        /* \"#utility.yul\":3555:3629   */\n      swap2\n      pop\n        /* \"#utility.yul\":3511:3639   */\n      pop\n        /* \"#utility.yul\":3295:3646   */\n      swap3\n      swap2\n      pop\n      pop\n      jump\t// out\n        /* \"#utility.yul\":3652:3984   */\n    tag_33:\n        /* \"#utility.yul\":3773:3777   */\n      0x00\n        /* \"#utility.yul\":3811:3813   */\n      0x40\n        /* \"#utility.yul\":3800:3809   */\n      dup3\n        /* \"#utility.yul\":3796:3814   */\n      add\n        /* \"#utility.yul\":3788:3814   */\n      swap1\n      pop\n        /* \"#utility.yul\":3824:3895   */\n      tag_132\n        /* \"#utility.yul\":3892:3893   */\n      0x00\n        /* \"#utility.yul\":3881:3890   */\n      dup4\n        /* \"#utility.yul\":3877:3894   */\n      add\n        /* \"#utility.yul\":3868:3874   */\n      dup6\n        /* \"#utility.yul\":3824:3895   */\n      tag_81\n      jump\t// in\n    tag_132:\n        /* \"#utility.yul\":3905:3977   */\n      tag_133\n        /* \"#utility.yul\":3973:3975   */\n      0x20\n        /* \"#utility.yul\":3962:3971   */\n      dup4\n        /* \"#utility.yul\":3958:3976   */\n      add\n        /* \"#utility.yul\":3949:3955   */\n      dup5\n        /* \"#utility.yul\":3905:3977   */\n      tag_81\n      jump\t// in\n    tag_133:\n        /* \"#utility.yul\":3652:3984   */\n      swap4\n      swap3\n      pop\n      pop\n      pop\n      jump\t// out\n        /* \"#utility.yul\":3990:4432   */\n    tag_44:\n        /* \"#utility.yul\":4139:4143   */\n      0x00\n        /* \"#utility.yul\":4177:4179   */\n      0x60\n        /* \"#utility.yul\":4166:4175   */\n      dup3\n        /* \"#utility.yul\":4162:4180   */\n      add\n        /* \"#utility.yul\":4154:4180   */\n      swap1\n      pop\n        /* \"#utility.yul\":4190:4261   */\n      tag_135\n        /* \"#utility.yul\":4258:4259   */\n      0x00\n        /* \"#utility.yul\":4247:4256   */\n      dup4\n        /* \"#utility.yul\":4243:4260   */\n      add\n        /* \"#utility.yul\":4234:4240   */\n      dup7\n        /* \"#utility.yul\":4190:4261   */\n      tag_81\n      jump\t// in\n    tag_135:\n        /* \"#utility.yul\":4271:4343   */\n      tag_136\n        /* \"#utility.yul\":4339:4341   */\n      0x20\n        /* \"#utility.yul\":4328:4337   */\n      dup4\n        /* \"#utility.yul\":4324:4342   */\n      add\n        /* \"#utility.yul\":4315:4321   */\n      dup6\n        /* \"#utility.yul\":4271:4343   */\n      tag_81\n      jump\t// in\n    tag_136:\n        /* \"#utility.yul\":4353:4425   */\n      tag_137\n        /* \"#utility.yul\":4421:4423   */\n      0x40\n        /* \"#utility.yul\":4410:4419   */\n      dup4\n        /* \"#utility.yul\":4406:4424   */\n      add\n        /* \"#utility.yul\":4397:4403   */\n      dup5\n        /* \"#utility.yul\":4353:4425   */\n      tag_69\n      jump\t// in\n    tag_137:\n        /* \"#utility.yul\":3990:4432   */\n      swap5\n      swap4\n      pop\n      pop\n      pop\n      pop\n      jump\t// out\n        /* \"#utility.yul\":4438:4554   */\n    tag_83:\n        /* \"#utility.yul\":4508:4529   */\n      tag_139\n        /* \"#utility.yul\":4523:4528   */\n      dup2\n        /* \"#utility.yul\":4508:4529   */\n      tag_79\n      jump\t// in\n    tag_139:\n        /* \"#utility.yul\":4501:4506   */\n      dup2\n        /* \"#utility.yul\":4498:4530   */\n      eq\n        /* \"#utility.yul\":4488:4548   */\n      tag_140\n      jumpi\n        /* \"#utility.yul\":4544:4545   */\n      0x00\n        /* \"#utility.yul\":4541:4542   */\n      0x00\n        /* \"#utility.yul\":4534:4546   */\n      revert\n        /* \"#utility.yul\":4488:4548   */\n    tag_140:\n        /* \"#utility.yul\":4438:4554   */\n      pop\n      jump\t// out\n        /* \"#utility.yul\":4560:4697   */\n    tag_84:\n        /* \"#utility.yul\":4614:4619   */\n      0x00\n        /* \"#utility.yul\":4645:4651   */\n      dup2\n        /* \"#utility.yul\":4639:4652   */\n      mload\n        /* \"#utility.yul\":4630:4652   */\n      swap1\n      pop\n        /* \"#utility.yul\":4661:4691   */\n      tag_142\n        /* \"#utility.yul\":4685:4690   */\n      dup2\n        /* \"#utility.yul\":4661:4691   */\n      tag_83\n      jump\t// in\n    tag_142:\n        /* \"#utility.yul\":4560:4697   */\n      swap3\n      swap2\n      pop\n      pop\n      jump\t// out\n        /* \"#utility.yul\":4703:5048   */\n    tag_48:\n        /* \"#utility.yul\":4770:4776   */\n      0x00\n        /* \"#utility.yul\":4819:4821   */\n      0x20\n        /* \"#utility.yul\":4807:4816   */\n      dup3\n        /* \"#utility.yul\":4798:4805   */\n      dup5\n        /* \"#utility.yul\":4794:4817   */\n      sub\n        /* \"#utility.yul\":4790:4822   */\n      slt\n        /* \"#utility.yul\":4787:4906   */\n      iszero\n      tag_144\n      jumpi\n        /* \"#utility.yul\":4825:4904   */\n      tag_145\n      tag_71\n      jump\t// in\n    tag_145:\n        /* \"#utility.yul\":4787:4906   */\n    tag_144:\n        /* \"#utility.yul\":4945:4946   */\n      0x00\n        /* \"#utility.yul\":4970:5031   */\n      tag_146\n        /* \"#utility.yul\":5023:5030   */\n      dup5\n        /* \"#utility.yul\":5014:5020   */\n      dup3\n        /* \"#utility.yul\":5003:5012   */\n      dup6\n        /* \"#utility.yul\":4999:5021   */\n      add\n        /* \"#utility.yul\":4970:5031   */\n      tag_84\n      jump\t// in\n    tag_146:\n        /* \"#utility.yul\":4960:5031   */\n      swap2\n      pop\n        /* \"#utility.yul\":4916:5041   */\n      pop\n        /* \"#utility.yul\":4703:5048   */\n      swap3\n      swap2\n      pop\n      pop\n      jump\t// out\n        /* \"#utility.yul\":5054:5234   */\n    tag_85:\n        /* \"#utility.yul\":5102:5179   */\n      0x4e487b7100000000000000000000000000000000000000000000000000000000\n        /* \"#utility.yul\":5099:5100   */\n      0x00\n        /* \"#utility.yul\":5092:5180   */\n      mstore\n        /* \"#utility.yul\":5199:5203   */\n      0x11\n        /* \"#utility.yul\":5196:5197   */\n      0x04\n        /* \"#utility.yul\":5189:5204   */\n      mstore\n        /* \"#utility.yul\":5223:5227   */\n      0x24\n        /* \"#utility.yul\":5220:5221   */\n      0x00\n        /* \"#utility.yul\":5213:5228   */\n      revert\n        /* \"#utility.yul\":5240:5431   */\n    tag_51:\n        /* \"#utility.yul\":5280:5283   */\n      0x00\n        /* \"#utility.yul\":5299:5319   */\n      tag_149\n        /* \"#utility.yul\":5317:5318   */\n      dup3\n        /* \"#utility.yul\":5299:5319   */\n      tag_68\n      jump\t// in\n    tag_149:\n        /* \"#utility.yul\":5294:5319   */\n      swap2\n      pop\n        /* \"#utility.yul\":5333:5353   */\n      tag_150\n        /* \"#utility.yul\":5351:5352   */\n      dup4\n        /* \"#utility.yul\":5333:5353   */\n      tag_68\n      jump\t// in\n    tag_150:\n        /* \"#utility.yul\":5328:5353   */\n      swap3\n      pop\n        /* \"#utility.yul\":5376:5377   */\n      dup3\n        /* \"#utility.yul\":5373:5374   */\n      dup3\n        /* \"#utility.yul\":5369:5378   */\n      add\n        /* \"#utility.yul\":5362:5378   */\n      swap1\n      pop\n        /* \"#utility.yul\":5397:5400   */\n      dup1\n        /* \"#utility.yul\":5394:5395   */\n      dup3\n        /* \"#utility.yul\":5391:5401   */\n      gt\n        /* \"#utility.yul\":5388:5424   */\n      iszero\n      tag_151\n      jumpi\n        /* \"#utility.yul\":5404:5422   */\n      tag_152\n      tag_85\n      jump\t// in\n    tag_152:\n        /* \"#utility.yul\":5388:5424   */\n    tag_151:\n        /* \"#utility.yul\":5240:5431   */\n      swap3\n      swap2\n      pop\n      pop\n      jump\t// out\n        /* \"#utility.yul\":5437:5631   */\n    tag_62:\n        /* \"#utility.yul\":5477:5481   */\n      0x00\n        /* \"#utility.yul\":5497:5517   */\n      tag_154\n        /* \"#utility.yul\":5515:5516   */\n      dup3\n        /* \"#utility.yul\":5497:5517   */\n      tag_68\n      jump\t// in\n    tag_154:\n        /* \"#utility.yul\":5492:5517   */\n      swap2\n      pop\n        /* \"#utility.yul\":5531:5551   */\n      tag_155\n        /* \"#utility.yul\":5549:5550   */\n      dup4\n        /* \"#utility.yul\":5531:5551   */\n      tag_68\n      jump\t// in\n    tag_155:\n        /* \"#utility.yul\":5526:5551   */\n      swap3\n      pop\n        /* \"#utility.yul\":5575:5576   */\n      dup3\n        /* \"#utility.yul\":5572:5573   */\n      dup3\n        /* \"#utility.yul\":5568:5577   */\n      sub\n        /* \"#utility.yul\":5560:5577   */\n      swap1\n      pop\n        /* \"#utility.yul\":5599:5600   */\n      dup2\n        /* \"#utility.yul\":5593:5597   */\n      dup2\n        /* \"#utility.yul\":5590:5601   */\n      gt\n        /* \"#utility.yul\":5587:5624   */\n      iszero\n      tag_156\n      jumpi\n        /* \"#utility.yul\":5604:5622   */\n      tag_157\n      tag_85\n      jump\t// in\n    tag_157:\n        /* \"#utility.yul\":5587:5624   */\n    tag_156:\n        /* \"#utility.yul\":5437:5631   */\n      swap3\n      swap2\n      pop\n      pop\n      jump\t// out\n        /* \"#utility.yul\":5637:5969   */\n    tag_64:\n        /* \"#utility.yul\":5758:5762   */\n      0x00\n        /* \"#utility.yul\":5796:5798   */\n      0x40\n        /* \"#utility.yul\":5785:5794   */\n      dup3\n        /* \"#utility.yul\":5781:5799   */\n      add\n        /* \"#utility.yul\":5773:5799   */\n      swap1\n      pop\n        /* \"#utility.yul\":5809:5880   */\n      tag_159\n        /* \"#utility.yul\":5877:5878   */\n      0x00\n        /* \"#utility.yul\":5866:5875   */\n      dup4\n        /* \"#utility.yul\":5862:5879   */\n      add\n        /* \"#utility.yul\":5853:5859   */\n      dup6\n        /* \"#utility.yul\":5809:5880   */\n      tag_81\n      jump\t// in\n    tag_159:\n        /* \"#utility.yul\":5890:5962   */\n      tag_160\n        /* \"#utility.yul\":5958:5960   */\n      0x20\n        /* \"#utility.yul\":5947:5956   */\n      dup4\n        /* \"#utility.yul\":5943:5961   */\n      add\n        /* \"#utility.yul\":5934:5940   */\n      dup5\n        /* \"#utility.yul\":5890:5962   */\n      tag_69\n      jump\t// in\n    tag_160:\n        /* \"#utility.yul\":5637:5969   */\n      swap4\n      swap3\n      pop\n      pop\n      pop\n      jump\t// out\n\n    auxdata: 0xa264697066735822122010d2f8d16842e808ae8ea0b87625b19a554e219a97e0bbaff7b56a076c165bf764736f6c634300081b0033\n}\n",
				"bytecode": {
					"linkReferences": {},
					"object": "6080604052734144bf680c5d5b5a1409ef63778e003ec3220e5b60015f6101000a81548173ffffffffffffffffffffffffffffffffffffffff021916908373ffffffffffffffffffffffffffffffffffffffff1602179055503480156062575f5ffd5b5060015f9054906101000a900473ffffffffffffffffffffffffffffffffffffffff1660025f6101000a81548173ffffffffffffffffffffffffffffffffffffffff021916908373ffffffffffffffffffffffffffffffffffffffff1602179055506108d9806100d15f395ff3fe608060405234801561000f575f5ffd5b5060043610610049575f3560e01c80620c43971461004d57806346207da81461006b578063c9e369c11461008a578063fb2ab9b0146100ba575b5f5ffd5b6100556100ea565b6040516100629190610598565b60405180910390f35b6100736100ef565b6040516100819291906105b1565b60405180910390f35b6100a4600480360381019061009f9190610660565b610232565b6040516100b191906106b8565b60405180910390f35b6100d460048036038101906100cf9190610660565b61037f565b6040516100e191906106b8565b60405180910390f35b5f5481565b5f5f5f60025f9054906101000a900473ffffffffffffffffffffffffffffffffffffffff1673ffffffffffffffffffffffffffffffffffffffff166370a08231336040518263ffffffff1660e01b815260040161014c91906106e0565b602060405180830381865afa158015610167573d5f5f3e3d5ffd5b505050506040513d601f19601f8201168201806040525081019061018b919061070d565b905060025f9054906101000a900473ffffffffffffffffffffffffffffffffffffffff1673ffffffffffffffffffffffffffffffffffffffff1663dd62ed3e33306040518363ffffffff1660e01b81526004016101e9929190610738565b602060405180830381865afa158015610204573d5f5f3e3d5ffd5b505050506040513d601f19601f82011682018060405250810190610228919061070d565b8192509250509091565b5f8160025f9054906101000a900473ffffffffffffffffffffffffffffffffffffffff1673ffffffffffffffffffffffffffffffffffffffff1663dd62ed3e33306040518363ffffffff1660e01b8152600401610290929190610738565b602060405180830381865afa1580156102ab573d5f5f3e3d5ffd5b505050506040513d601f19601f820116820180604052508101906102cf919061070d565b10156102d9575f5ffd5b60025f9054906101000a900473ffffffffffffffffffffffffffffffffffffffff1673ffffffffffffffffffffffffffffffffffffffff166323b872dd3385856040518463ffffffff1660e01b81526004016103379392919061075f565b6020604051808303815f875af1158015610353573d5f5f3e3d5ffd5b505050506040513d601f19601f8201168201806040525081019061037791906107be565b905092915050565b5f815f5461038d9190610816565b60025f9054906101000a900473ffffffffffffffffffffffffffffffffffffffff1673ffffffffffffffffffffffffffffffffffffffff166370a08231306040518263ffffffff1660e01b81526004016103e791906106e0565b602060405180830381865afa158015610402573d5f5f3e3d5ffd5b505050506040513d601f19601f82011682018060405250810190610426919061070d565b1015610430575f5ffd5b8160025f9054906101000a900473ffffffffffffffffffffffffffffffffffffffff1673ffffffffffffffffffffffffffffffffffffffff166370a08231306040518263ffffffff1660e01b815260040161048b91906106e0565b602060405180830381865afa1580156104a6573d5f5f3e3d5ffd5b505050506040513d601f19601f820116820180604052508101906104ca919061070d565b6104d49190610849565b5f8190555060025f9054906101000a900473ffffffffffffffffffffffffffffffffffffffff1673ffffffffffffffffffffffffffffffffffffffff1663a9059cbb84846040518363ffffffff1660e01b815260040161053592919061087c565b6020604051808303815f875af1158015610551573d5f5f3e3d5ffd5b505050506040513d601f19601f8201168201806040525081019061057591906107be565b506001905092915050565b5f819050919050565b61059281610580565b82525050565b5f6020820190506105ab5f830184610589565b92915050565b5f6040820190506105c45f830185610589565b6105d16020830184610589565b9392505050565b5f5ffd5b5f73ffffffffffffffffffffffffffffffffffffffff82169050919050565b5f610605826105dc565b9050919050565b610615816105fb565b811461061f575f5ffd5b50565b5f813590506106308161060c565b92915050565b61063f81610580565b8114610649575f5ffd5b50565b5f8135905061065a81610636565b92915050565b5f5f60408385031215610676576106756105d8565b5b5f61068385828601610622565b92505060206106948582860161064c565b9150509250929050565b5f8115159050919050565b6106b28161069e565b82525050565b5f6020820190506106cb5f8301846106a9565b92915050565b6106da816105fb565b82525050565b5f6020820190506106f35f8301846106d1565b92915050565b5f8151905061070781610636565b92915050565b5f60208284031215610722576107216105d8565b5b5f61072f848285016106f9565b91505092915050565b5f60408201905061074b5f8301856106d1565b61075860208301846106d1565b9392505050565b5f6060820190506107725f8301866106d1565b61077f60208301856106d1565b61078c6040830184610589565b949350505050565b61079d8161069e565b81146107a7575f5ffd5b50565b5f815190506107b881610794565b92915050565b5f602082840312156107d3576107d26105d8565b5b5f6107e0848285016107aa565b91505092915050565b7f4e487b71000000000000000000000000000000000000000000000000000000005f52601160045260245ffd5b5f61082082610580565b915061082b83610580565b9250828201905080821115610843576108426107e9565b5b92915050565b5f61085382610580565b915061085e83610580565b9250828203905081811115610876576108756107e9565b5b92915050565b5f60408201905061088f5f8301856106d1565b61089c6020830184610589565b939250505056fea264697066735822122010d2f8d16842e808ae8ea0b87625b19a554e219a97e0bbaff7b56a076c165bf764736f6c634300081b0033",
					"opcodes": "PUSH1 0x80 PUSH1 0x40 MSTORE PUSH20 0x4144BF680C5D5B5A1409EF63778E003EC3220E5B PUSH1 0x1 PUSH0 PUSH2 0x100 EXP DUP2 SLOAD DUP2 PUSH20 0xFFFFFFFFFFFFFFFFFFFFFFFFFFFFFFFFFFFFFFFF MUL NOT AND SWAP1 DUP4 PUSH20 0xFFFFFFFFFFFFFFFFFFFFFFFFFFFFFFFFFFFFFFFF AND MUL OR SWAP1 SSTORE POP CALLVALUE DUP1 ISZERO PUSH1 0x62 JUMPI PUSH0 PUSH0 REVERT JUMPDEST POP PUSH1 0x1 PUSH0 SWAP1 SLOAD SWAP1 PUSH2 0x100 EXP SWAP1 DIV PUSH20 0xFFFFFFFFFFFFFFFFFFFFFFFFFFFFFFFFFFFFFFFF AND PUSH1 0x2 PUSH0 PUSH2 0x100 EXP DUP2 SLOAD DUP2 PUSH20 0xFFFFFFFFFFFFFFFFFFFFFFFFFFFFFFFFFFFFFFFF MUL NOT AND SWAP1 DUP4 PUSH20 0xFFFFFFFFFFFFFFFFFFFFFFFFFFFFFFFFFFFFFFFF AND MUL OR SWAP1 SSTORE POP PUSH2 0x8D9 DUP1 PUSH2 0xD1 PUSH0 CODECOPY PUSH0 RETURN INVALID PUSH1 0x80 PUSH1 0x40 MSTORE CALLVALUE DUP1 ISZERO PUSH2 0xF JUMPI PUSH0 PUSH0 REVERT JUMPDEST POP PUSH1 0x4 CALLDATASIZE LT PUSH2 0x49 JUMPI PUSH0 CALLDATALOAD PUSH1 0xE0 SHR DUP1 PUSH3 0xC4397 EQ PUSH2 0x4D JUMPI DUP1 PUSH4 0x46207DA8 EQ PUSH2 0x6B JUMPI DUP1 PUSH4 0xC9E369C1 EQ PUSH2 0x8A JUMPI DUP1 PUSH4 0xFB2AB9B0 EQ PUSH2 0xBA JUMPI JUMPDEST PUSH0 PUSH0 REVERT JUMPDEST PUSH2 0x55 PUSH2 0xEA JUMP JUMPDEST PUSH1 0x40 MLOAD PUSH2 0x62 SWAP2 SWAP1 PUSH2 0x598 JUMP JUMPDEST PUSH1 0x40 MLOAD DUP1 SWAP2 SUB SWAP1 RETURN JUMPDEST PUSH2 0x73 PUSH2 0xEF JUMP JUMPDEST PUSH1 0x40 MLOAD PUSH2 0x81 SWAP3 SWAP2 SWAP1 PUSH2 0x5B1 JUMP JUMPDEST PUSH1 0x40 MLOAD DUP1 SWAP2 SUB SWAP1 RETURN JUMPDEST PUSH2 0xA4 PUSH1 0x4 DUP1 CALLDATASIZE SUB DUP2 ADD SWAP1 PUSH2 0x9F SWAP2 SWAP1 PUSH2 0x660 JUMP JUMPDEST PUSH2 0x232 JUMP JUMPDEST PUSH1 0x40 MLOAD PUSH2 0xB1 SWAP2 SWAP1 PUSH2 0x6B8 JUMP JUMPDEST PUSH1 0x40 MLOAD DUP1 SWAP2 SUB SWAP1 RETURN JUMPDEST PUSH2 0xD4 PUSH1 0x4 DUP1 CALLDATASIZE SUB DUP2 ADD SWAP1 PUSH2 0xCF SWAP2 SWAP1 PUSH2 0x660 JUMP JUMPDEST PUSH2 0x37F JUMP JUMPDEST PUSH1 0x40 MLOAD PUSH2 0xE1 SWAP2 SWAP1 PUSH2 0x6B8 JUMP JUMPDEST PUSH1 0x40 MLOAD DUP1 SWAP2 SUB SWAP1 RETURN JUMPDEST PUSH0 SLOAD DUP2 JUMP JUMPDEST PUSH0 PUSH0 PUSH0 PUSH1 0x2 PUSH0 SWAP1 SLOAD SWAP1 PUSH2 0x100 EXP SWAP1 DIV PUSH20 0xFFFFFFFFFFFFFFFFFFFFFFFFFFFFFFFFFFFFFFFF AND PUSH20 0xFFFFFFFFFFFFFFFFFFFFFFFFFFFFFFFFFFFFFFFF AND PUSH4 0x70A08231 CALLER PUSH1 0x40 MLOAD DUP3 PUSH4 0xFFFFFFFF AND PUSH1 0xE0 SHL DUP2 MSTORE PUSH1 0x4 ADD PUSH2 0x14C SWAP2 SWAP1 PUSH2 0x6E0 JUMP JUMPDEST PUSH1 0x20 PUSH1 0x40 MLOAD DUP1 DUP4 SUB DUP2 DUP7 GAS STATICCALL ISZERO DUP1 ISZERO PUSH2 0x167 JUMPI RETURNDATASIZE PUSH0 PUSH0 RETURNDATACOPY RETURNDATASIZE PUSH0 REVERT JUMPDEST POP POP POP POP PUSH1 0x40 MLOAD RETURNDATASIZE PUSH1 0x1F NOT PUSH1 0x1F DUP3 ADD AND DUP3 ADD DUP1 PUSH1 0x40 MSTORE POP DUP2 ADD SWAP1 PUSH2 0x18B SWAP2 SWAP1 PUSH2 0x70D JUMP JUMPDEST SWAP1 POP PUSH1 0x2 PUSH0 SWAP1 SLOAD SWAP1 PUSH2 0x100 EXP SWAP1 DIV PUSH20 0xFFFFFFFFFFFFFFFFFFFFFFFFFFFFFFFFFFFFFFFF AND PUSH20 0xFFFFFFFFFFFFFFFFFFFFFFFFFFFFFFFFFFFFFFFF AND PUSH4 0xDD62ED3E CALLER ADDRESS PUSH1 0x40 MLOAD DUP4 PUSH4 0xFFFFFFFF AND PUSH1 0xE0 SHL DUP2 MSTORE PUSH1 0x4 ADD PUSH2 0x1E9 SWAP3 SWAP2 SWAP1 PUSH2 0x738 JUMP JUMPDEST PUSH1 0x20 PUSH1 0x40 MLOAD DUP1 DUP4 SUB DUP2 DUP7 GAS STATICCALL ISZERO DUP1 ISZERO PUSH2 0x204 JUMPI RETURNDATASIZE PUSH0 PUSH0 RETURNDATACOPY RETURNDATASIZE PUSH0 REVERT JUMPDEST POP POP POP POP PUSH1 0x40 MLOAD RETURNDATASIZE PUSH1 0x1F NOT PUSH1 0x1F DUP3 ADD AND DUP3 ADD DUP1 PUSH1 0x40 MSTORE POP DUP2 ADD SWAP1 PUSH2 0x228 SWAP2 SWAP1 PUSH2 0x70D JUMP JUMPDEST DUP2 SWAP3 POP SWAP3 POP POP SWAP1 SWAP2 JUMP JUMPDEST PUSH0 DUP2 PUSH1 0x2 PUSH0 SWAP1 SLOAD SWAP1 PUSH2 0x100 EXP SWAP1 DIV PUSH20 0xFFFFFFFFFFFFFFFFFFFFFFFFFFFFFFFFFFFFFFFF AND PUSH20 0xFFFFFFFFFFFFFFFFFFFFFFFFFFFFFFFFFFFFFFFF AND PUSH4 0xDD62ED3E CALLER ADDRESS PUSH1 0x40 MLOAD DUP4 PUSH4 0xFFFFFFFF AND PUSH1 0xE0 SHL DUP2 MSTORE PUSH1 0x4 ADD PUSH2 0x290 SWAP3 SWAP2 SWAP1 PUSH2 0x738 JUMP JUMPDEST PUSH1 0x20 PUSH1 0x40 MLOAD DUP1 DUP4 SUB DUP2 DUP7 GAS STATICCALL ISZERO DUP1 ISZERO PUSH2 0x2AB JUMPI RETURNDATASIZE PUSH0 PUSH0 RETURNDATACOPY RETURNDATASIZE PUSH0 REVERT JUMPDEST POP POP POP POP PUSH1 0x40 MLOAD RETURNDATASIZE PUSH1 0x1F NOT PUSH1 0x1F DUP3 ADD AND DUP3 ADD DUP1 PUSH1 0x40 MSTORE POP DUP2 ADD SWAP1 PUSH2 0x2CF SWAP2 SWAP1 PUSH2 0x70D JUMP JUMPDEST LT ISZERO PUSH2 0x2D9 JUMPI PUSH0 PUSH0 REVERT JUMPDEST PUSH1 0x2 PUSH0 SWAP1 SLOAD SWAP1 PUSH2 0x100 EXP SWAP1 DIV PUSH20 0xFFFFFFFFFFFFFFFFFFFFFFFFFFFFFFFFFFFFFFFF AND PUSH20 0xFFFFFFFFFFFFFFFFFFFFFFFFFFFFFFFFFFFFFFFF AND PUSH4 0x23B872DD CALLER DUP6 DUP6 PUSH1 0x40 MLOAD DUP5 PUSH4 0xFFFFFFFF AND PUSH1 0xE0 SHL DUP2 MSTORE PUSH1 0x4 ADD PUSH2 0x337 SWAP4 SWAP3 SWAP2 SWAP1 PUSH2 0x75F JUMP JUMPDEST PUSH1 0x20 PUSH1 0x40 MLOAD DUP1 DUP4 SUB DUP2 PUSH0 DUP8 GAS CALL ISZERO DUP1 ISZERO PUSH2 0x353 JUMPI RETURNDATASIZE PUSH0 PUSH0 RETURNDATACOPY RETURNDATASIZE PUSH0 REVERT JUMPDEST POP POP POP POP PUSH1 0x40 MLOAD RETURNDATASIZE PUSH1 0x1F NOT PUSH1 0x1F DUP3 ADD AND DUP3 ADD DUP1 PUSH1 0x40 MSTORE POP DUP2 ADD SWAP1 PUSH2 0x377 SWAP2 SWAP1 PUSH2 0x7BE JUMP JUMPDEST SWAP1 POP SWAP3 SWAP2 POP POP JUMP JUMPDEST PUSH0 DUP2 PUSH0 SLOAD PUSH2 0x38D SWAP2 SWAP1 PUSH2 0x816 JUMP JUMPDEST PUSH1 0x2 PUSH0 SWAP1 SLOAD SWAP1 PUSH2 0x100 EXP SWAP1 DIV PUSH20 0xFFFFFFFFFFFFFFFFFFFFFFFFFFFFFFFFFFFFFFFF AND PUSH20 0xFFFFFFFFFFFFFFFFFFFFFFFFFFFFFFFFFFFFFFFF AND PUSH4 0x70A08231 ADDRESS PUSH1 0x40 MLOAD DUP3 PUSH4 0xFFFFFFFF AND PUSH1 0xE0 SHL DUP2 MSTORE PUSH1 0x4 ADD PUSH2 0x3E7 SWAP2 SWAP1 PUSH2 0x6E0 JUMP JUMPDEST PUSH1 0x20 PUSH1 0x40 MLOAD DUP1 DUP4 SUB DUP2 DUP7 GAS STATICCALL ISZERO DUP1 ISZERO PUSH2 0x402 JUMPI RETURNDATASIZE PUSH0 PUSH0 RETURNDATACOPY RETURNDATASIZE PUSH0 REVERT JUMPDEST POP POP POP POP PUSH1 0x40 MLOAD RETURNDATASIZE PUSH1 0x1F NOT PUSH1 0x1F DUP3 ADD AND DUP3 ADD DUP1 PUSH1 0x40 MSTORE POP DUP2 ADD SWAP1 PUSH2 0x426 SWAP2 SWAP1 PUSH2 0x70D JUMP JUMPDEST LT ISZERO PUSH2 0x430 JUMPI PUSH0 PUSH0 REVERT JUMPDEST DUP2 PUSH1 0x2 PUSH0 SWAP1 SLOAD SWAP1 PUSH2 0x100 EXP SWAP1 DIV PUSH20 0xFFFFFFFFFFFFFFFFFFFFFFFFFFFFFFFFFFFFFFFF AND PUSH20 0xFFFFFFFFFFFFFFFFFFFFFFFFFFFFFFFFFFFFFFFF AND PUSH4 0x70A08231 ADDRESS PUSH1 0x40 MLOAD DUP3 PUSH4 0xFFFFFFFF AND PUSH1 0xE0 SHL DUP2 MSTORE PUSH1 0x4 ADD PUSH2 0x48B SWAP2 SWAP1 PUSH2 0x6E0 JUMP JUMPDEST PUSH1 0x20 PUSH1 0x40 MLOAD DUP1 DUP4 SUB DUP2 DUP7 GAS STATICCALL ISZERO DUP1 ISZERO PUSH2 0x4A6 JUMPI RETURNDATASIZE PUSH0 PUSH0 RETURNDATACOPY RETURNDATASIZE PUSH0 REVERT JUMPDEST POP POP POP POP PUSH1 0x40 MLOAD RETURNDATASIZE PUSH1 0x1F NOT PUSH1 0x1F DUP3 ADD AND DUP3 ADD DUP1 PUSH1 0x40 MSTORE POP DUP2 ADD SWAP1 PUSH2 0x4CA SWAP2 SWAP1 PUSH2 0x70D JUMP JUMPDEST PUSH2 0x4D4 SWAP2 SWAP1 PUSH2 0x849 JUMP JUMPDEST PUSH0 DUP2 SWAP1 SSTORE POP PUSH1 0x2 PUSH0 SWAP1 SLOAD SWAP1 PUSH2 0x100 EXP SWAP1 DIV PUSH20 0xFFFFFFFFFFFFFFFFFFFFFFFFFFFFFFFFFFFFFFFF AND PUSH20 0xFFFFFFFFFFFFFFFFFFFFFFFFFFFFFFFFFFFFFFFF AND PUSH4 0xA9059CBB DUP5 DUP5 PUSH1 0x40 MLOAD DUP4 PUSH4 0xFFFFFFFF AND PUSH1 0xE0 SHL DUP2 MSTORE PUSH1 0x4 ADD PUSH2 0x535 SWAP3 SWAP2 SWAP1 PUSH2 0x87C JUMP JUMPDEST PUSH1 0x20 PUSH1 0x40 MLOAD DUP1 DUP4 SUB DUP2 PUSH0 DUP8 GAS CALL ISZERO DUP1 ISZERO PUSH2 0x551 JUMPI RETURNDATASIZE PUSH0 PUSH0 RETURNDATACOPY RETURNDATASIZE PUSH0 REVERT JUMPDEST POP POP POP POP PUSH1 0x40 MLOAD RETURNDATASIZE PUSH1 0x1F NOT PUSH1 0x1F DUP3 ADD AND DUP3 ADD DUP1 PUSH1 0x40 MSTORE POP DUP2 ADD SWAP1 PUSH2 0x575 SWAP2 SWAP1 PUSH2 0x7BE JUMP JUMPDEST POP PUSH1 0x1 SWAP1 POP SWAP3 SWAP2 POP POP JUMP JUMPDEST PUSH0 DUP2 SWAP1 POP SWAP2 SWAP1 POP JUMP JUMPDEST PUSH2 0x592 DUP2 PUSH2 0x580 JUMP JUMPDEST DUP3 MSTORE POP POP JUMP JUMPDEST PUSH0 PUSH1 0x20 DUP3 ADD SWAP1 POP PUSH2 0x5AB PUSH0 DUP4 ADD DUP5 PUSH2 0x589 JUMP JUMPDEST SWAP3 SWAP2 POP POP JUMP JUMPDEST PUSH0 PUSH1 0x40 DUP3 ADD SWAP1 POP PUSH2 0x5C4 PUSH0 DUP4 ADD DUP6 PUSH2 0x589 JUMP JUMPDEST PUSH2 0x5D1 PUSH1 0x20 DUP4 ADD DUP5 PUSH2 0x589 JUMP JUMPDEST SWAP4 SWAP3 POP POP POP JUMP JUMPDEST PUSH0 PUSH0 REVERT JUMPDEST PUSH0 PUSH20 0xFFFFFFFFFFFFFFFFFFFFFFFFFFFFFFFFFFFFFFFF DUP3 AND SWAP1 POP SWAP2 SWAP1 POP JUMP JUMPDEST PUSH0 PUSH2 0x605 DUP3 PUSH2 0x5DC JUMP JUMPDEST SWAP1 POP SWAP2 SWAP1 POP JUMP JUMPDEST PUSH2 0x615 DUP2 PUSH2 0x5FB JUMP JUMPDEST DUP2 EQ PUSH2 0x61F JUMPI PUSH0 PUSH0 REVERT JUMPDEST POP JUMP JUMPDEST PUSH0 DUP2 CALLDATALOAD SWAP1 POP PUSH2 0x630 DUP2 PUSH2 0x60C JUMP JUMPDEST SWAP3 SWAP2 POP POP JUMP JUMPDEST PUSH2 0x63F DUP2 PUSH2 0x580 JUMP JUMPDEST DUP2 EQ PUSH2 0x649 JUMPI PUSH0 PUSH0 REVERT JUMPDEST POP JUMP JUMPDEST PUSH0 DUP2 CALLDATALOAD SWAP1 POP PUSH2 0x65A DUP2 PUSH2 0x636 JUMP JUMPDEST SWAP3 SWAP2 POP POP JUMP JUMPDEST PUSH0 PUSH0 PUSH1 0x40 DUP4 DUP6 SUB SLT ISZERO PUSH2 0x676 JUMPI PUSH2 0x675 PUSH2 0x5D8 JUMP JUMPDEST JUMPDEST PUSH0 PUSH2 0x683 DUP6 DUP3 DUP7 ADD PUSH2 0x622 JUMP JUMPDEST SWAP3 POP POP PUSH1 0x20 PUSH2 0x694 DUP6 DUP3 DUP7 ADD PUSH2 0x64C JUMP JUMPDEST SWAP2 POP POP SWAP3 POP SWAP3 SWAP1 POP JUMP JUMPDEST PUSH0 DUP2 ISZERO ISZERO SWAP1 POP SWAP2 SWAP1 POP JUMP JUMPDEST PUSH2 0x6B2 DUP2 PUSH2 0x69E JUMP JUMPDEST DUP3 MSTORE POP POP JUMP JUMPDEST PUSH0 PUSH1 0x20 DUP3 ADD SWAP1 POP PUSH2 0x6CB PUSH0 DUP4 ADD DUP5 PUSH2 0x6A9 JUMP JUMPDEST SWAP3 SWAP2 POP POP JUMP JUMPDEST PUSH2 0x6DA DUP2 PUSH2 0x5FB JUMP JUMPDEST DUP3 MSTORE POP POP JUMP JUMPDEST PUSH0 PUSH1 0x20 DUP3 ADD SWAP1 POP PUSH2 0x6F3 PUSH0 DUP4 ADD DUP5 PUSH2 0x6D1 JUMP JUMPDEST SWAP3 SWAP2 POP POP JUMP JUMPDEST PUSH0 DUP2 MLOAD SWAP1 POP PUSH2 0x707 DUP2 PUSH2 0x636 JUMP JUMPDEST SWAP3 SWAP2 POP POP JUMP JUMPDEST PUSH0 PUSH1 0x20 DUP3 DUP5 SUB SLT ISZERO PUSH2 0x722 JUMPI PUSH2 0x721 PUSH2 0x5D8 JUMP JUMPDEST JUMPDEST PUSH0 PUSH2 0x72F DUP5 DUP3 DUP6 ADD PUSH2 0x6F9 JUMP JUMPDEST SWAP2 POP POP SWAP3 SWAP2 POP POP JUMP JUMPDEST PUSH0 PUSH1 0x40 DUP3 ADD SWAP1 POP PUSH2 0x74B PUSH0 DUP4 ADD DUP6 PUSH2 0x6D1 JUMP JUMPDEST PUSH2 0x758 PUSH1 0x20 DUP4 ADD DUP5 PUSH2 0x6D1 JUMP JUMPDEST SWAP4 SWAP3 POP POP POP JUMP JUMPDEST PUSH0 PUSH1 0x60 DUP3 ADD SWAP1 POP PUSH2 0x772 PUSH0 DUP4 ADD DUP7 PUSH2 0x6D1 JUMP JUMPDEST PUSH2 0x77F PUSH1 0x20 DUP4 ADD DUP6 PUSH2 0x6D1 JUMP JUMPDEST PUSH2 0x78C PUSH1 0x40 DUP4 ADD DUP5 PUSH2 0x589 JUMP JUMPDEST SWAP5 SWAP4 POP POP POP POP JUMP JUMPDEST PUSH2 0x79D DUP2 PUSH2 0x69E JUMP JUMPDEST DUP2 EQ PUSH2 0x7A7 JUMPI PUSH0 PUSH0 REVERT JUMPDEST POP JUMP JUMPDEST PUSH0 DUP2 MLOAD SWAP1 POP PUSH2 0x7B8 DUP2 PUSH2 0x794 JUMP JUMPDEST SWAP3 SWAP2 POP POP JUMP JUMPDEST PUSH0 PUSH1 0x20 DUP3 DUP5 SUB SLT ISZERO PUSH2 0x7D3 JUMPI PUSH2 0x7D2 PUSH2 0x5D8 JUMP JUMPDEST JUMPDEST PUSH0 PUSH2 0x7E0 DUP5 DUP3 DUP6 ADD PUSH2 0x7AA JUMP JUMPDEST SWAP2 POP POP SWAP3 SWAP2 POP POP JUMP JUMPDEST PUSH32 0x4E487B7100000000000000000000000000000000000000000000000000000000 PUSH0 MSTORE PUSH1 0x11 PUSH1 0x4 MSTORE PUSH1 0x24 PUSH0 REVERT JUMPDEST PUSH0 PUSH2 0x820 DUP3 PUSH2 0x580 JUMP JUMPDEST SWAP2 POP PUSH2 0x82B DUP4 PUSH2 0x580 JUMP JUMPDEST SWAP3 POP DUP3 DUP3 ADD SWAP1 POP DUP1 DUP3 GT ISZERO PUSH2 0x843 JUMPI PUSH2 0x842 PUSH2 0x7E9 JUMP JUMPDEST JUMPDEST SWAP3 SWAP2 POP POP JUMP JUMPDEST PUSH0 PUSH2 0x853 DUP3 PUSH2 0x580 JUMP JUMPDEST SWAP2 POP PUSH2 0x85E DUP4 PUSH2 0x580 JUMP JUMPDEST SWAP3 POP DUP3 DUP3 SUB SWAP1 POP DUP2 DUP2 GT ISZERO PUSH2 0x876 JUMPI PUSH2 0x875 PUSH2 0x7E9 JUMP JUMPDEST JUMPDEST SWAP3 SWAP2 POP POP JUMP JUMPDEST PUSH0 PUSH1 0x40 DUP3 ADD SWAP1 POP PUSH2 0x88F PUSH0 DUP4 ADD DUP6 PUSH2 0x6D1 JUMP JUMPDEST PUSH2 0x89C PUSH1 0x20 DUP4 ADD DUP5 PUSH2 0x589 JUMP JUMPDEST SWAP4 SWAP3 POP POP POP JUMP INVALID LOG2 PUSH5 0x6970667358 0x22 SLT KECCAK256 LT 0xD2 0xF8 0xD1 PUSH9 0x42E808AE8EA0B87625 0xB1 SWAP11 SSTORE 0x4E 0x21 SWAP11 SWAP8 0xE0 0xBB 0xAF 0xF7 0xB5 PUSH11 0x76C165BF764736F6C6343 STOP ADDMOD SHL STOP CALLER "
				},
				"gasEstimates": {
					"creation": {
						"codeDepositCost": "453000",
						"executionCost": "51151",
						"totalCost": "504151"
					},
					"external": {
						"AllowenceFunc()": "infinite",
						"JustTransferFunc(address,uint256)": "infinite",
						"TotalBalance()": "2402",
						"transferfromFunct(address,uint256)": "infinite"
					}
				},
				"methodIdentifiers": {
					"AllowenceFunc()": "46207da8",
					"JustTransferFunc(address,uint256)": "fb2ab9b0",
					"TotalBalance()": "000c4397",
					"transferfromFunct(address,uint256)": "c9e369c1"
				}
			},
			"storageLayout": {
				"storage": [
					{
						"astId": 82,
						"contract": "contracts/approve denemesi/approve.sol:approve",
						"label": "TotalBalance",
						"offset": 0,
						"slot": "0",
						"type": "t_uint256"
					},
					{
						"astId": 85,
						"contract": "contracts/approve denemesi/approve.sol:approve",
						"label": "tokenAddress",
						"offset": 0,
						"slot": "1",
						"type": "t_address"
					},
					{
						"astId": 88,
						"contract": "contracts/approve denemesi/approve.sol:approve",
						"label": "token",
						"offset": 0,
						"slot": "2",
						"type": "t_contract(IERC20)77"
					}
				],
				"types": {
					"t_address": {
						"encoding": "inplace",
						"label": "address",
						"numberOfBytes": "20"
					},
					"t_contract(IERC20)77": {
						"encoding": "inplace",
						"label": "contract IERC20",
						"numberOfBytes": "20"
					},
					"t_uint256": {
						"encoding": "inplace",
						"label": "uint256",
						"numberOfBytes": "32"
					}
				}
			},
			"userdoc": {
				"kind": "user",
				"methods": {},
				"version": 1
			}
		}
	}
}