{
	"contracts/mini-stake.sol": {
		"MiniStake": {
			"abi": [
				{
					"inputs": [],
					"stateMutability": "nonpayable",
					"type": "constructor"
				},
				{
					"inputs": [
						{
							"internalType": "address",
							"name": "_addr",
							"type": "address"
						}
					],
					"name": "OwnerPayBack",
					"outputs": [],
					"stateMutability": "nonpayable",
					"type": "function"
				},
				{
					"inputs": [
						{
							"internalType": "address",
							"name": "_addr",
							"type": "address"
						}
					],
					"name": "TransferOwnership",
					"outputs": [],
					"stateMutability": "nonpayable",
					"type": "function"
				},
				{
					"inputs": [],
					"name": "miniStake",
					"outputs": [],
					"stateMutability": "payable",
					"type": "function"
				},
				{
					"inputs": [],
					"name": "payBack",
					"outputs": [],
					"stateMutability": "nonpayable",
					"type": "function"
				}
			],
			"devdoc": {
				"kind": "dev",
				"methods": {},
				"version": 1
			},
			"evm": {
				"assembly": "    /* \"contracts/mini-stake.sol\":58:1257  contract MiniStake {... */\n  mstore(0x40, 0x80)\n    /* \"contracts/mini-stake.sol\":201:250  constructor() {... */\n  callvalue\n  dup1\n  iszero\n  tag_1\n  jumpi\n  0x00\n  dup1\n  revert\ntag_1:\n  pop\n    /* \"contracts/mini-stake.sol\":233:243  msg.sender */\n  caller\n    /* \"contracts/mini-stake.sol\":225:230  owner */\n  0x00\n  dup1\n    /* \"contracts/mini-stake.sol\":225:243  owner = msg.sender */\n  0x0100\n  exp\n  dup2\n  sload\n  dup2\n  0xffffffffffffffffffffffffffffffffffffffff\n  mul\n  not\n  and\n  swap1\n  dup4\n  0xffffffffffffffffffffffffffffffffffffffff\n  and\n  mul\n  or\n  swap1\n  sstore\n  pop\n    /* \"contracts/mini-stake.sol\":58:1257  contract MiniStake {... */\n  dataSize(sub_0)\n  dup1\n  dataOffset(sub_0)\n  0x00\n  codecopy\n  0x00\n  return\nstop\n\nsub_0: assembly {\n        /* \"contracts/mini-stake.sol\":58:1257  contract MiniStake {... */\n      mstore(0x40, 0x80)\n      jumpi(tag_1, lt(calldatasize, 0x04))\n      shr(0xe0, calldataload(0x00))\n      dup1\n      0x019f64cc\n      eq\n      tag_2\n      jumpi\n      dup1\n      0x25f95ff6\n      eq\n      tag_3\n      jumpi\n      dup1\n      0xab2a4b36\n      eq\n      tag_4\n      jumpi\n      dup1\n      0xcfaaa266\n      eq\n      tag_5\n      jumpi\n    tag_1:\n      0x00\n      dup1\n      revert\n        /* \"contracts/mini-stake.sol\":557:922  function payBack() public Time(msg.sender) {... */\n    tag_2:\n      callvalue\n      dup1\n      iszero\n      tag_6\n      jumpi\n      0x00\n      dup1\n      revert\n    tag_6:\n      pop\n      tag_7\n      tag_8\n      jump\t// in\n    tag_7:\n      stop\n        /* \"contracts/mini-stake.sol\":929:1106  function OwnerPayBack(address _addr) public {... */\n    tag_3:\n      callvalue\n      dup1\n      iszero\n      tag_9\n      jumpi\n      0x00\n      dup1\n      revert\n    tag_9:\n      pop\n      tag_10\n      0x04\n      dup1\n      calldatasize\n      sub\n      dup2\n      add\n      swap1\n      tag_11\n      swap2\n      swap1\n      tag_12\n      jump\t// in\n    tag_11:\n      tag_13\n      jump\t// in\n    tag_10:\n      stop\n        /* \"contracts/mini-stake.sol\":392:551  function miniStake() public payable {... */\n    tag_4:\n      tag_14\n      tag_15\n      jump\t// in\n    tag_14:\n      stop\n        /* \"contracts/mini-stake.sol\":1112:1251  function TransferOwnership(address _addr) public {... */\n    tag_5:\n      callvalue\n      dup1\n      iszero\n      tag_16\n      jumpi\n      0x00\n      dup1\n      revert\n    tag_16:\n      pop\n      tag_17\n      0x04\n      dup1\n      calldatasize\n      sub\n      dup2\n      add\n      swap1\n      tag_18\n      swap2\n      swap1\n      tag_12\n      jump\t// in\n    tag_18:\n      tag_19\n      jump\t// in\n    tag_17:\n      stop\n        /* \"contracts/mini-stake.sol\":557:922  function payBack() public Time(msg.sender) {... */\n    tag_8:\n        /* \"contracts/mini-stake.sol\":588:598  msg.sender */\n      caller\n        /* \"contracts/mini-stake.sol\":341:348  30 days */\n      0x278d00\n        /* \"contracts/mini-stake.sol\":326:331  dates */\n      0x02\n        /* \"contracts/mini-stake.sol\":326:338  dates[_addr] */\n      0x00\n        /* \"contracts/mini-stake.sol\":332:337  _addr */\n      dup4\n        /* \"contracts/mini-stake.sol\":326:338  dates[_addr] */\n      0xffffffffffffffffffffffffffffffffffffffff\n      and\n      0xffffffffffffffffffffffffffffffffffffffff\n      and\n      dup2\n      mstore\n      0x20\n      add\n      swap1\n      dup2\n      mstore\n      0x20\n      add\n      0x00\n      keccak256\n      sload\n        /* \"contracts/mini-stake.sol\":326:348  dates[_addr] + 30 days */\n      tag_21\n      swap2\n      swap1\n      tag_22\n      jump\t// in\n    tag_21:\n        /* \"contracts/mini-stake.sol\":307:322  block.timestamp */\n      timestamp\n        /* \"contracts/mini-stake.sol\":307:348  block.timestamp >= dates[_addr] + 30 days */\n      lt\n      iszero\n        /* \"contracts/mini-stake.sol\":299:367  require(block.timestamp >= dates[_addr] + 30 days, \"30 gun dolmadi\") */\n      tag_23\n      jumpi\n      mload(0x40)\n      0x08c379a000000000000000000000000000000000000000000000000000000000\n      dup2\n      mstore\n      0x04\n      add\n      tag_24\n      swap1\n      tag_25\n      jump\t// in\n    tag_24:\n      mload(0x40)\n      dup1\n      swap2\n      sub\n      swap1\n      revert\n    tag_23:\n        /* \"contracts/mini-stake.sol\":610:626  uint stakeAmount */\n      0x00\n        /* \"contracts/mini-stake.sol\":629:635  amount */\n      0x01\n        /* \"contracts/mini-stake.sol\":629:647  amount[msg.sender] */\n      0x00\n        /* \"contracts/mini-stake.sol\":636:646  msg.sender */\n      caller\n        /* \"contracts/mini-stake.sol\":629:647  amount[msg.sender] */\n      0xffffffffffffffffffffffffffffffffffffffff\n      and\n      0xffffffffffffffffffffffffffffffffffffffff\n      and\n      dup2\n      mstore\n      0x20\n      add\n      swap1\n      dup2\n      mstore\n      0x20\n      add\n      0x00\n      keccak256\n      sload\n        /* \"contracts/mini-stake.sol\":610:647  uint stakeAmount = amount[msg.sender] */\n      swap1\n      pop\n        /* \"contracts/mini-stake.sol\":706:707  0 */\n      0x00\n        /* \"contracts/mini-stake.sol\":692:703  stakeAmount */\n      dup2\n        /* \"contracts/mini-stake.sol\":692:707  stakeAmount > 0 */\n      gt\n        /* \"contracts/mini-stake.sol\":684:743  require(stakeAmount > 0, \"Stake edilmis miktar bulunamadi\") */\n      tag_27\n      jumpi\n      mload(0x40)\n      0x08c379a000000000000000000000000000000000000000000000000000000000\n      dup2\n      mstore\n      0x04\n      add\n      tag_28\n      swap1\n      tag_29\n      jump\t// in\n    tag_28:\n      mload(0x40)\n      dup1\n      swap2\n      sub\n      swap1\n      revert\n    tag_27:\n        /* \"contracts/mini-stake.sol\":770:775  dates */\n      0x02\n        /* \"contracts/mini-stake.sol\":770:787  dates[msg.sender] */\n      0x00\n        /* \"contracts/mini-stake.sol\":776:786  msg.sender */\n      caller\n        /* \"contracts/mini-stake.sol\":770:787  dates[msg.sender] */\n      0xffffffffffffffffffffffffffffffffffffffff\n      and\n      0xffffffffffffffffffffffffffffffffffffffff\n      and\n      dup2\n      mstore\n      0x20\n      add\n      swap1\n      dup2\n      mstore\n      0x20\n      add\n      0x00\n      keccak256\n        /* \"contracts/mini-stake.sol\":763:787  delete dates[msg.sender] */\n      0x00\n      swap1\n      sstore\n        /* \"contracts/mini-stake.sol\":805:810  dates */\n      0x02\n        /* \"contracts/mini-stake.sol\":805:822  dates[msg.sender] */\n      0x00\n        /* \"contracts/mini-stake.sol\":811:821  msg.sender */\n      caller\n        /* \"contracts/mini-stake.sol\":805:822  dates[msg.sender] */\n      0xffffffffffffffffffffffffffffffffffffffff\n      and\n      0xffffffffffffffffffffffffffffffffffffffff\n      and\n      dup2\n      mstore\n      0x20\n      add\n      swap1\n      dup2\n      mstore\n      0x20\n      add\n      0x00\n      keccak256\n        /* \"contracts/mini-stake.sol\":797:822  delete  dates[msg.sender] */\n      0x00\n      swap1\n      sstore\n        /* \"contracts/mini-stake.sol\":882:892  msg.sender */\n      caller\n        /* \"contracts/mini-stake.sol\":874:902  payable(msg.sender).transfer */\n      0xffffffffffffffffffffffffffffffffffffffff\n      and\n        /* \"contracts/mini-stake.sol\":874:915  payable(msg.sender).transfer(stakeAmount) */\n      0x08fc\n        /* \"contracts/mini-stake.sol\":903:914  stakeAmount */\n      dup3\n        /* \"contracts/mini-stake.sol\":874:915  payable(msg.sender).transfer(stakeAmount) */\n      swap1\n      dup2\n      iszero\n      mul\n      swap1\n      mload(0x40)\n      0x00\n      mload(0x40)\n      dup1\n      dup4\n      sub\n      dup2\n      dup6\n      dup9\n      dup9\n      call\n      swap4\n      pop\n      pop\n      pop\n      pop\n      iszero\n      dup1\n      iszero\n      tag_31\n      jumpi\n      returndatasize\n      0x00\n      dup1\n      returndatacopy\n      revert(0x00, returndatasize)\n    tag_31:\n      pop\n        /* \"contracts/mini-stake.sol\":600:922  {... */\n      pop\n        /* \"contracts/mini-stake.sol\":557:922  function payBack() public Time(msg.sender) {... */\n      pop\n      jump\t// out\n        /* \"contracts/mini-stake.sol\":929:1106  function OwnerPayBack(address _addr) public {... */\n    tag_13:\n        /* \"contracts/mini-stake.sol\":1005:1010  owner */\n      0x00\n      dup1\n      sload\n      swap1\n      0x0100\n      exp\n      swap1\n      div\n      0xffffffffffffffffffffffffffffffffffffffff\n      and\n        /* \"contracts/mini-stake.sol\":991:1010  msg.sender == owner */\n      0xffffffffffffffffffffffffffffffffffffffff\n      and\n        /* \"contracts/mini-stake.sol\":991:1001  msg.sender */\n      caller\n        /* \"contracts/mini-stake.sol\":991:1010  msg.sender == owner */\n      0xffffffffffffffffffffffffffffffffffffffff\n      and\n      eq\n        /* \"contracts/mini-stake.sol\":983:1011  require(msg.sender == owner) */\n      tag_33\n      jumpi\n      0x00\n      dup1\n      revert\n    tag_33:\n        /* \"contracts/mini-stake.sol\":1021:1037  uint stakeAmount */\n      0x00\n        /* \"contracts/mini-stake.sol\":1040:1046  amount */\n      0x01\n        /* \"contracts/mini-stake.sol\":1040:1053  amount[_addr] */\n      0x00\n        /* \"contracts/mini-stake.sol\":1047:1052  _addr */\n      dup4\n        /* \"contracts/mini-stake.sol\":1040:1053  amount[_addr] */\n      0xffffffffffffffffffffffffffffffffffffffff\n      and\n      0xffffffffffffffffffffffffffffffffffffffff\n      and\n      dup2\n      mstore\n      0x20\n      add\n      swap1\n      dup2\n      mstore\n      0x20\n      add\n      0x00\n      keccak256\n      sload\n        /* \"contracts/mini-stake.sol\":1021:1053  uint stakeAmount = amount[_addr] */\n      swap1\n      pop\n        /* \"contracts/mini-stake.sol\":1071:1076  _addr */\n      dup2\n        /* \"contracts/mini-stake.sol\":1063:1086  payable(_addr).transfer */\n      0xffffffffffffffffffffffffffffffffffffffff\n      and\n        /* \"contracts/mini-stake.sol\":1063:1099  payable(_addr).transfer(stakeAmount) */\n      0x08fc\n        /* \"contracts/mini-stake.sol\":1087:1098  stakeAmount */\n      dup3\n        /* \"contracts/mini-stake.sol\":1063:1099  payable(_addr).transfer(stakeAmount) */\n      swap1\n      dup2\n      iszero\n      mul\n      swap1\n      mload(0x40)\n      0x00\n      mload(0x40)\n      dup1\n      dup4\n      sub\n      dup2\n      dup6\n      dup9\n      dup9\n      call\n      swap4\n      pop\n      pop\n      pop\n      pop\n      iszero\n      dup1\n      iszero\n      tag_35\n      jumpi\n      returndatasize\n      0x00\n      dup1\n      returndatacopy\n      revert(0x00, returndatasize)\n    tag_35:\n      pop\n        /* \"contracts/mini-stake.sol\":973:1106  {... */\n      pop\n        /* \"contracts/mini-stake.sol\":929:1106  function OwnerPayBack(address _addr) public {... */\n      pop\n      jump\t// out\n        /* \"contracts/mini-stake.sol\":392:551  function miniStake() public payable {... */\n    tag_15:\n        /* \"contracts/mini-stake.sol\":457:458  0 */\n      0x00\n        /* \"contracts/mini-stake.sol\":446:455  msg.value */\n      callvalue\n        /* \"contracts/mini-stake.sol\":446:458  msg.value> 0 */\n      gt\n        /* \"contracts/mini-stake.sol\":438:459  require(msg.value> 0) */\n      tag_37\n      jumpi\n      0x00\n      dup1\n      revert\n    tag_37:\n        /* \"contracts/mini-stake.sol\":489:504  block.timestamp */\n      timestamp\n        /* \"contracts/mini-stake.sol\":469:474  dates */\n      0x02\n        /* \"contracts/mini-stake.sol\":469:486  dates[msg.sender] */\n      0x00\n        /* \"contracts/mini-stake.sol\":475:485  msg.sender */\n      caller\n        /* \"contracts/mini-stake.sol\":469:486  dates[msg.sender] */\n      0xffffffffffffffffffffffffffffffffffffffff\n      and\n      0xffffffffffffffffffffffffffffffffffffffff\n      and\n      dup2\n      mstore\n      0x20\n      add\n      swap1\n      dup2\n      mstore\n      0x20\n      add\n      0x00\n      keccak256\n        /* \"contracts/mini-stake.sol\":469:504  dates[msg.sender] = block.timestamp */\n      dup2\n      swap1\n      sstore\n      pop\n        /* \"contracts/mini-stake.sol\":535:544  msg.value */\n      callvalue\n        /* \"contracts/mini-stake.sol\":514:520  amount */\n      0x01\n        /* \"contracts/mini-stake.sol\":514:532  amount[msg.sender] */\n      0x00\n        /* \"contracts/mini-stake.sol\":521:531  msg.sender */\n      caller\n        /* \"contracts/mini-stake.sol\":514:532  amount[msg.sender] */\n      0xffffffffffffffffffffffffffffffffffffffff\n      and\n      0xffffffffffffffffffffffffffffffffffffffff\n      and\n      dup2\n      mstore\n      0x20\n      add\n      swap1\n      dup2\n      mstore\n      0x20\n      add\n      0x00\n      keccak256\n        /* \"contracts/mini-stake.sol\":514:544  amount[msg.sender] = msg.value */\n      dup2\n      swap1\n      sstore\n      pop\n        /* \"contracts/mini-stake.sol\":392:551  function miniStake() public payable {... */\n      jump\t// out\n        /* \"contracts/mini-stake.sol\":1112:1251  function TransferOwnership(address _addr) public {... */\n    tag_19:\n        /* \"contracts/mini-stake.sol\":1193:1198  owner */\n      0x00\n      dup1\n      sload\n      swap1\n      0x0100\n      exp\n      swap1\n      div\n      0xffffffffffffffffffffffffffffffffffffffff\n      and\n        /* \"contracts/mini-stake.sol\":1179:1198  msg.sender == owner */\n      0xffffffffffffffffffffffffffffffffffffffff\n      and\n        /* \"contracts/mini-stake.sol\":1179:1189  msg.sender */\n      caller\n        /* \"contracts/mini-stake.sol\":1179:1198  msg.sender == owner */\n      0xffffffffffffffffffffffffffffffffffffffff\n      and\n      eq\n        /* \"contracts/mini-stake.sol\":1171:1220  require(msg.sender == owner,\"Sahip sen degilsin\") */\n      tag_39\n      jumpi\n      mload(0x40)\n      0x08c379a000000000000000000000000000000000000000000000000000000000\n      dup2\n      mstore\n      0x04\n      add\n      tag_40\n      swap1\n      tag_41\n      jump\t// in\n    tag_40:\n      mload(0x40)\n      dup1\n      swap2\n      sub\n      swap1\n      revert\n    tag_39:\n        /* \"contracts/mini-stake.sol\":1238:1243  _addr */\n      dup1\n        /* \"contracts/mini-stake.sol\":1230:1235  owner */\n      0x00\n      dup1\n        /* \"contracts/mini-stake.sol\":1230:1243  owner = _addr */\n      0x0100\n      exp\n      dup2\n      sload\n      dup2\n      0xffffffffffffffffffffffffffffffffffffffff\n      mul\n      not\n      and\n      swap1\n      dup4\n      0xffffffffffffffffffffffffffffffffffffffff\n      and\n      mul\n      or\n      swap1\n      sstore\n      pop\n        /* \"contracts/mini-stake.sol\":1112:1251  function TransferOwnership(address _addr) public {... */\n      pop\n      jump\t// out\n        /* \"#utility.yul\":88:205   */\n    tag_43:\n        /* \"#utility.yul\":197:198   */\n      0x00\n        /* \"#utility.yul\":194:195   */\n      dup1\n        /* \"#utility.yul\":187:199   */\n      revert\n        /* \"#utility.yul\":334:460   */\n    tag_45:\n        /* \"#utility.yul\":371:378   */\n      0x00\n        /* \"#utility.yul\":411:453   */\n      0xffffffffffffffffffffffffffffffffffffffff\n        /* \"#utility.yul\":404:409   */\n      dup3\n        /* \"#utility.yul\":400:454   */\n      and\n        /* \"#utility.yul\":389:454   */\n      swap1\n      pop\n        /* \"#utility.yul\":334:460   */\n      swap2\n      swap1\n      pop\n      jump\t// out\n        /* \"#utility.yul\":466:562   */\n    tag_46:\n        /* \"#utility.yul\":503:510   */\n      0x00\n        /* \"#utility.yul\":532:556   */\n      tag_64\n        /* \"#utility.yul\":550:555   */\n      dup3\n        /* \"#utility.yul\":532:556   */\n      tag_45\n      jump\t// in\n    tag_64:\n        /* \"#utility.yul\":521:556   */\n      swap1\n      pop\n        /* \"#utility.yul\":466:562   */\n      swap2\n      swap1\n      pop\n      jump\t// out\n        /* \"#utility.yul\":568:690   */\n    tag_47:\n        /* \"#utility.yul\":641:665   */\n      tag_66\n        /* \"#utility.yul\":659:664   */\n      dup2\n        /* \"#utility.yul\":641:665   */\n      tag_46\n      jump\t// in\n    tag_66:\n        /* \"#utility.yul\":634:639   */\n      dup2\n        /* \"#utility.yul\":631:666   */\n      eq\n        /* \"#utility.yul\":621:684   */\n      tag_67\n      jumpi\n        /* \"#utility.yul\":680:681   */\n      0x00\n        /* \"#utility.yul\":677:678   */\n      dup1\n        /* \"#utility.yul\":670:682   */\n      revert\n        /* \"#utility.yul\":621:684   */\n    tag_67:\n        /* \"#utility.yul\":568:690   */\n      pop\n      jump\t// out\n        /* \"#utility.yul\":696:835   */\n    tag_48:\n        /* \"#utility.yul\":742:747   */\n      0x00\n        /* \"#utility.yul\":780:786   */\n      dup2\n        /* \"#utility.yul\":767:787   */\n      calldataload\n        /* \"#utility.yul\":758:787   */\n      swap1\n      pop\n        /* \"#utility.yul\":796:829   */\n      tag_69\n        /* \"#utility.yul\":823:828   */\n      dup2\n        /* \"#utility.yul\":796:829   */\n      tag_47\n      jump\t// in\n    tag_69:\n        /* \"#utility.yul\":696:835   */\n      swap3\n      swap2\n      pop\n      pop\n      jump\t// out\n        /* \"#utility.yul\":841:1170   */\n    tag_12:\n        /* \"#utility.yul\":900:906   */\n      0x00\n        /* \"#utility.yul\":949:951   */\n      0x20\n        /* \"#utility.yul\":937:946   */\n      dup3\n        /* \"#utility.yul\":928:935   */\n      dup5\n        /* \"#utility.yul\":924:947   */\n      sub\n        /* \"#utility.yul\":920:952   */\n      slt\n        /* \"#utility.yul\":917:1036   */\n      iszero\n      tag_71\n      jumpi\n        /* \"#utility.yul\":955:1034   */\n      tag_72\n      tag_43\n      jump\t// in\n    tag_72:\n        /* \"#utility.yul\":917:1036   */\n    tag_71:\n        /* \"#utility.yul\":1075:1076   */\n      0x00\n        /* \"#utility.yul\":1100:1153   */\n      tag_73\n        /* \"#utility.yul\":1145:1152   */\n      dup5\n        /* \"#utility.yul\":1136:1142   */\n      dup3\n        /* \"#utility.yul\":1125:1134   */\n      dup6\n        /* \"#utility.yul\":1121:1143   */\n      add\n        /* \"#utility.yul\":1100:1153   */\n      tag_48\n      jump\t// in\n    tag_73:\n        /* \"#utility.yul\":1090:1153   */\n      swap2\n      pop\n        /* \"#utility.yul\":1046:1163   */\n      pop\n        /* \"#utility.yul\":841:1170   */\n      swap3\n      swap2\n      pop\n      pop\n      jump\t// out\n        /* \"#utility.yul\":1176:1253   */\n    tag_49:\n        /* \"#utility.yul\":1213:1220   */\n      0x00\n        /* \"#utility.yul\":1242:1247   */\n      dup2\n        /* \"#utility.yul\":1231:1247   */\n      swap1\n      pop\n        /* \"#utility.yul\":1176:1253   */\n      swap2\n      swap1\n      pop\n      jump\t// out\n        /* \"#utility.yul\":1259:1439   */\n    tag_50:\n        /* \"#utility.yul\":1307:1384   */\n      0x4e487b7100000000000000000000000000000000000000000000000000000000\n        /* \"#utility.yul\":1304:1305   */\n      0x00\n        /* \"#utility.yul\":1297:1385   */\n      mstore\n        /* \"#utility.yul\":1404:1408   */\n      0x11\n        /* \"#utility.yul\":1401:1402   */\n      0x04\n        /* \"#utility.yul\":1394:1409   */\n      mstore\n        /* \"#utility.yul\":1428:1432   */\n      0x24\n        /* \"#utility.yul\":1425:1426   */\n      0x00\n        /* \"#utility.yul\":1418:1433   */\n      revert\n        /* \"#utility.yul\":1445:1636   */\n    tag_22:\n        /* \"#utility.yul\":1485:1488   */\n      0x00\n        /* \"#utility.yul\":1504:1524   */\n      tag_77\n        /* \"#utility.yul\":1522:1523   */\n      dup3\n        /* \"#utility.yul\":1504:1524   */\n      tag_49\n      jump\t// in\n    tag_77:\n        /* \"#utility.yul\":1499:1524   */\n      swap2\n      pop\n        /* \"#utility.yul\":1538:1558   */\n      tag_78\n        /* \"#utility.yul\":1556:1557   */\n      dup4\n        /* \"#utility.yul\":1538:1558   */\n      tag_49\n      jump\t// in\n    tag_78:\n        /* \"#utility.yul\":1533:1558   */\n      swap3\n      pop\n        /* \"#utility.yul\":1581:1582   */\n      dup3\n        /* \"#utility.yul\":1578:1579   */\n      dup3\n        /* \"#utility.yul\":1574:1583   */\n      add\n        /* \"#utility.yul\":1567:1583   */\n      swap1\n      pop\n        /* \"#utility.yul\":1602:1605   */\n      dup1\n        /* \"#utility.yul\":1599:1600   */\n      dup3\n        /* \"#utility.yul\":1596:1606   */\n      gt\n        /* \"#utility.yul\":1593:1629   */\n      iszero\n      tag_79\n      jumpi\n        /* \"#utility.yul\":1609:1627   */\n      tag_80\n      tag_50\n      jump\t// in\n    tag_80:\n        /* \"#utility.yul\":1593:1629   */\n    tag_79:\n        /* \"#utility.yul\":1445:1636   */\n      swap3\n      swap2\n      pop\n      pop\n      jump\t// out\n        /* \"#utility.yul\":1642:1811   */\n    tag_51:\n        /* \"#utility.yul\":1726:1737   */\n      0x00\n        /* \"#utility.yul\":1760:1766   */\n      dup3\n        /* \"#utility.yul\":1755:1758   */\n      dup3\n        /* \"#utility.yul\":1748:1767   */\n      mstore\n        /* \"#utility.yul\":1800:1804   */\n      0x20\n        /* \"#utility.yul\":1795:1798   */\n      dup3\n        /* \"#utility.yul\":1791:1805   */\n      add\n        /* \"#utility.yul\":1776:1805   */\n      swap1\n      pop\n        /* \"#utility.yul\":1642:1811   */\n      swap3\n      swap2\n      pop\n      pop\n      jump\t// out\n        /* \"#utility.yul\":1817:1981   */\n    tag_52:\n        /* \"#utility.yul\":1957:1973   */\n      0x33302067756e20646f6c6d616469000000000000000000000000000000000000\n        /* \"#utility.yul\":1953:1954   */\n      0x00\n        /* \"#utility.yul\":1945:1951   */\n      dup3\n        /* \"#utility.yul\":1941:1955   */\n      add\n        /* \"#utility.yul\":1934:1974   */\n      mstore\n        /* \"#utility.yul\":1817:1981   */\n      pop\n      jump\t// out\n        /* \"#utility.yul\":1987:2353   */\n    tag_53:\n        /* \"#utility.yul\":2129:2132   */\n      0x00\n        /* \"#utility.yul\":2150:2217   */\n      tag_84\n        /* \"#utility.yul\":2214:2216   */\n      0x0e\n        /* \"#utility.yul\":2209:2212   */\n      dup4\n        /* \"#utility.yul\":2150:2217   */\n      tag_51\n      jump\t// in\n    tag_84:\n        /* \"#utility.yul\":2143:2217   */\n      swap2\n      pop\n        /* \"#utility.yul\":2226:2319   */\n      tag_85\n        /* \"#utility.yul\":2315:2318   */\n      dup3\n        /* \"#utility.yul\":2226:2319   */\n      tag_52\n      jump\t// in\n    tag_85:\n        /* \"#utility.yul\":2344:2346   */\n      0x20\n        /* \"#utility.yul\":2339:2342   */\n      dup3\n        /* \"#utility.yul\":2335:2347   */\n      add\n        /* \"#utility.yul\":2328:2347   */\n      swap1\n      pop\n        /* \"#utility.yul\":1987:2353   */\n      swap2\n      swap1\n      pop\n      jump\t// out\n        /* \"#utility.yul\":2359:2778   */\n    tag_25:\n        /* \"#utility.yul\":2525:2529   */\n      0x00\n        /* \"#utility.yul\":2563:2565   */\n      0x20\n        /* \"#utility.yul\":2552:2561   */\n      dup3\n        /* \"#utility.yul\":2548:2566   */\n      add\n        /* \"#utility.yul\":2540:2566   */\n      swap1\n      pop\n        /* \"#utility.yul\":2612:2621   */\n      dup2\n        /* \"#utility.yul\":2606:2610   */\n      dup2\n        /* \"#utility.yul\":2602:2622   */\n      sub\n        /* \"#utility.yul\":2598:2599   */\n      0x00\n        /* \"#utility.yul\":2587:2596   */\n      dup4\n        /* \"#utility.yul\":2583:2600   */\n      add\n        /* \"#utility.yul\":2576:2623   */\n      mstore\n        /* \"#utility.yul\":2640:2771   */\n      tag_87\n        /* \"#utility.yul\":2766:2770   */\n      dup2\n        /* \"#utility.yul\":2640:2771   */\n      tag_53\n      jump\t// in\n    tag_87:\n        /* \"#utility.yul\":2632:2771   */\n      swap1\n      pop\n        /* \"#utility.yul\":2359:2778   */\n      swap2\n      swap1\n      pop\n      jump\t// out\n        /* \"#utility.yul\":2784:2965   */\n    tag_54:\n        /* \"#utility.yul\":2924:2957   */\n      0x5374616b65206564696c6d6973206d696b7461722062756c756e616d61646900\n        /* \"#utility.yul\":2920:2921   */\n      0x00\n        /* \"#utility.yul\":2912:2918   */\n      dup3\n        /* \"#utility.yul\":2908:2922   */\n      add\n        /* \"#utility.yul\":2901:2958   */\n      mstore\n        /* \"#utility.yul\":2784:2965   */\n      pop\n      jump\t// out\n        /* \"#utility.yul\":2971:3337   */\n    tag_55:\n        /* \"#utility.yul\":3113:3116   */\n      0x00\n        /* \"#utility.yul\":3134:3201   */\n      tag_90\n        /* \"#utility.yul\":3198:3200   */\n      0x1f\n        /* \"#utility.yul\":3193:3196   */\n      dup4\n        /* \"#utility.yul\":3134:3201   */\n      tag_51\n      jump\t// in\n    tag_90:\n        /* \"#utility.yul\":3127:3201   */\n      swap2\n      pop\n        /* \"#utility.yul\":3210:3303   */\n      tag_91\n        /* \"#utility.yul\":3299:3302   */\n      dup3\n        /* \"#utility.yul\":3210:3303   */\n      tag_54\n      jump\t// in\n    tag_91:\n        /* \"#utility.yul\":3328:3330   */\n      0x20\n        /* \"#utility.yul\":3323:3326   */\n      dup3\n        /* \"#utility.yul\":3319:3331   */\n      add\n        /* \"#utility.yul\":3312:3331   */\n      swap1\n      pop\n        /* \"#utility.yul\":2971:3337   */\n      swap2\n      swap1\n      pop\n      jump\t// out\n        /* \"#utility.yul\":3343:3762   */\n    tag_29:\n        /* \"#utility.yul\":3509:3513   */\n      0x00\n        /* \"#utility.yul\":3547:3549   */\n      0x20\n        /* \"#utility.yul\":3536:3545   */\n      dup3\n        /* \"#utility.yul\":3532:3550   */\n      add\n        /* \"#utility.yul\":3524:3550   */\n      swap1\n      pop\n        /* \"#utility.yul\":3596:3605   */\n      dup2\n        /* \"#utility.yul\":3590:3594   */\n      dup2\n        /* \"#utility.yul\":3586:3606   */\n      sub\n        /* \"#utility.yul\":3582:3583   */\n      0x00\n        /* \"#utility.yul\":3571:3580   */\n      dup4\n        /* \"#utility.yul\":3567:3584   */\n      add\n        /* \"#utility.yul\":3560:3607   */\n      mstore\n        /* \"#utility.yul\":3624:3755   */\n      tag_93\n        /* \"#utility.yul\":3750:3754   */\n      dup2\n        /* \"#utility.yul\":3624:3755   */\n      tag_55\n      jump\t// in\n    tag_93:\n        /* \"#utility.yul\":3616:3755   */\n      swap1\n      pop\n        /* \"#utility.yul\":3343:3762   */\n      swap2\n      swap1\n      pop\n      jump\t// out\n        /* \"#utility.yul\":3768:3936   */\n    tag_56:\n        /* \"#utility.yul\":3908:3928   */\n      0x53616869702073656e20646567696c73696e0000000000000000000000000000\n        /* \"#utility.yul\":3904:3905   */\n      0x00\n        /* \"#utility.yul\":3896:3902   */\n      dup3\n        /* \"#utility.yul\":3892:3906   */\n      add\n        /* \"#utility.yul\":3885:3929   */\n      mstore\n        /* \"#utility.yul\":3768:3936   */\n      pop\n      jump\t// out\n        /* \"#utility.yul\":3942:4308   */\n    tag_57:\n        /* \"#utility.yul\":4084:4087   */\n      0x00\n        /* \"#utility.yul\":4105:4172   */\n      tag_96\n        /* \"#utility.yul\":4169:4171   */\n      0x12\n        /* \"#utility.yul\":4164:4167   */\n      dup4\n        /* \"#utility.yul\":4105:4172   */\n      tag_51\n      jump\t// in\n    tag_96:\n        /* \"#utility.yul\":4098:4172   */\n      swap2\n      pop\n        /* \"#utility.yul\":4181:4274   */\n      tag_97\n        /* \"#utility.yul\":4270:4273   */\n      dup3\n        /* \"#utility.yul\":4181:4274   */\n      tag_56\n      jump\t// in\n    tag_97:\n        /* \"#utility.yul\":4299:4301   */\n      0x20\n        /* \"#utility.yul\":4294:4297   */\n      dup3\n        /* \"#utility.yul\":4290:4302   */\n      add\n        /* \"#utility.yul\":4283:4302   */\n      swap1\n      pop\n        /* \"#utility.yul\":3942:4308   */\n      swap2\n      swap1\n      pop\n      jump\t// out\n        /* \"#utility.yul\":4314:4733   */\n    tag_41:\n        /* \"#utility.yul\":4480:4484   */\n      0x00\n        /* \"#utility.yul\":4518:4520   */\n      0x20\n        /* \"#utility.yul\":4507:4516   */\n      dup3\n        /* \"#utility.yul\":4503:4521   */\n      add\n        /* \"#utility.yul\":4495:4521   */\n      swap1\n      pop\n        /* \"#utility.yul\":4567:4576   */\n      dup2\n        /* \"#utility.yul\":4561:4565   */\n      dup2\n        /* \"#utility.yul\":4557:4577   */\n      sub\n        /* \"#utility.yul\":4553:4554   */\n      0x00\n        /* \"#utility.yul\":4542:4551   */\n      dup4\n        /* \"#utility.yul\":4538:4555   */\n      add\n        /* \"#utility.yul\":4531:4578   */\n      mstore\n        /* \"#utility.yul\":4595:4726   */\n      tag_99\n        /* \"#utility.yul\":4721:4725   */\n      dup2\n        /* \"#utility.yul\":4595:4726   */\n      tag_57\n      jump\t// in\n    tag_99:\n        /* \"#utility.yul\":4587:4726   */\n      swap1\n      pop\n        /* \"#utility.yul\":4314:4733   */\n      swap2\n      swap1\n      pop\n      jump\t// out\n\n    auxdata: 0xa26469706673582212209d7f8f4b2beee56e4f1f5168f4eef90ad2b69c3fe24a4887cc4ca4f2d56956ab64736f6c634300081a0033\n}\n",
				"bytecode": {
					"linkReferences": {},
					"object": "6080604052348015600e575f80fd5b50335f806101000a81548173ffffffffffffffffffffffffffffffffffffffff021916908373ffffffffffffffffffffffffffffffffffffffff16021790555061073b8061005b5f395ff3fe60806040526004361061003e575f3560e01c8063019f64cc1461004257806325f95ff614610058578063ab2a4b3614610080578063cfaaa2661461008a575b5f80fd5b34801561004d575f80fd5b506100566100b2565b005b348015610063575f80fd5b5061007e60048036038101906100799190610529565b61028c565b005b61008861036b565b005b348015610095575f80fd5b506100b060048036038101906100ab9190610529565b6103fc565b005b3362278d0060025f8373ffffffffffffffffffffffffffffffffffffffff1673ffffffffffffffffffffffffffffffffffffffff1681526020019081526020015f20546100ff919061058a565b421015610141576040517f08c379a000000000000000000000000000000000000000000000000000000000815260040161013890610617565b60405180910390fd5b5f60015f3373ffffffffffffffffffffffffffffffffffffffff1673ffffffffffffffffffffffffffffffffffffffff1681526020019081526020015f205490505f81116101c4576040517f08c379a00000000000000000000000000000000000000000000000000000000081526004016101bb9061067f565b60405180910390fd5b60025f3373ffffffffffffffffffffffffffffffffffffffff1673ffffffffffffffffffffffffffffffffffffffff1681526020019081526020015f205f905560025f3373ffffffffffffffffffffffffffffffffffffffff1673ffffffffffffffffffffffffffffffffffffffff1681526020019081526020015f205f90553373ffffffffffffffffffffffffffffffffffffffff166108fc8290811502906040515f60405180830381858888f19350505050158015610287573d5f803e3d5ffd5b505050565b5f8054906101000a900473ffffffffffffffffffffffffffffffffffffffff1673ffffffffffffffffffffffffffffffffffffffff163373ffffffffffffffffffffffffffffffffffffffff16146102e2575f80fd5b5f60015f8373ffffffffffffffffffffffffffffffffffffffff1673ffffffffffffffffffffffffffffffffffffffff1681526020019081526020015f205490508173ffffffffffffffffffffffffffffffffffffffff166108fc8290811502906040515f60405180830381858888f19350505050158015610366573d5f803e3d5ffd5b505050565b5f3411610376575f80fd5b4260025f3373ffffffffffffffffffffffffffffffffffffffff1673ffffffffffffffffffffffffffffffffffffffff1681526020019081526020015f20819055503460015f3373ffffffffffffffffffffffffffffffffffffffff1673ffffffffffffffffffffffffffffffffffffffff1681526020019081526020015f2081905550565b5f8054906101000a900473ffffffffffffffffffffffffffffffffffffffff1673ffffffffffffffffffffffffffffffffffffffff163373ffffffffffffffffffffffffffffffffffffffff1614610489576040517f08c379a0000000000000000000000000000000000000000000000000000000008152600401610480906106e7565b60405180910390fd5b805f806101000a81548173ffffffffffffffffffffffffffffffffffffffff021916908373ffffffffffffffffffffffffffffffffffffffff16021790555050565b5f80fd5b5f73ffffffffffffffffffffffffffffffffffffffff82169050919050565b5f6104f8826104cf565b9050919050565b610508816104ee565b8114610512575f80fd5b50565b5f81359050610523816104ff565b92915050565b5f6020828403121561053e5761053d6104cb565b5b5f61054b84828501610515565b91505092915050565b5f819050919050565b7f4e487b71000000000000000000000000000000000000000000000000000000005f52601160045260245ffd5b5f61059482610554565b915061059f83610554565b92508282019050808211156105b7576105b661055d565b5b92915050565b5f82825260208201905092915050565b7f33302067756e20646f6c6d6164690000000000000000000000000000000000005f82015250565b5f610601600e836105bd565b915061060c826105cd565b602082019050919050565b5f6020820190508181035f83015261062e816105f5565b9050919050565b7f5374616b65206564696c6d6973206d696b7461722062756c756e616d616469005f82015250565b5f610669601f836105bd565b915061067482610635565b602082019050919050565b5f6020820190508181035f8301526106968161065d565b9050919050565b7f53616869702073656e20646567696c73696e00000000000000000000000000005f82015250565b5f6106d16012836105bd565b91506106dc8261069d565b602082019050919050565b5f6020820190508181035f8301526106fe816106c5565b905091905056fea26469706673582212209d7f8f4b2beee56e4f1f5168f4eef90ad2b69c3fe24a4887cc4ca4f2d56956ab64736f6c634300081a0033",
					"opcodes": "PUSH1 0x80 PUSH1 0x40 MSTORE CALLVALUE DUP1 ISZERO PUSH1 0xE JUMPI PUSH0 DUP1 REVERT JUMPDEST POP CALLER PUSH0 DUP1 PUSH2 0x100 EXP DUP2 SLOAD DUP2 PUSH20 0xFFFFFFFFFFFFFFFFFFFFFFFFFFFFFFFFFFFFFFFF MUL NOT AND SWAP1 DUP4 PUSH20 0xFFFFFFFFFFFFFFFFFFFFFFFFFFFFFFFFFFFFFFFF AND MUL OR SWAP1 SSTORE POP PUSH2 0x73B DUP1 PUSH2 0x5B PUSH0 CODECOPY PUSH0 RETURN INVALID PUSH1 0x80 PUSH1 0x40 MSTORE PUSH1 0x4 CALLDATASIZE LT PUSH2 0x3E JUMPI PUSH0 CALLDATALOAD PUSH1 0xE0 SHR DUP1 PUSH4 0x19F64CC EQ PUSH2 0x42 JUMPI DUP1 PUSH4 0x25F95FF6 EQ PUSH2 0x58 JUMPI DUP1 PUSH4 0xAB2A4B36 EQ PUSH2 0x80 JUMPI DUP1 PUSH4 0xCFAAA266 EQ PUSH2 0x8A JUMPI JUMPDEST PUSH0 DUP1 REVERT JUMPDEST CALLVALUE DUP1 ISZERO PUSH2 0x4D JUMPI PUSH0 DUP1 REVERT JUMPDEST POP PUSH2 0x56 PUSH2 0xB2 JUMP JUMPDEST STOP JUMPDEST CALLVALUE DUP1 ISZERO PUSH2 0x63 JUMPI PUSH0 DUP1 REVERT JUMPDEST POP PUSH2 0x7E PUSH1 0x4 DUP1 CALLDATASIZE SUB DUP2 ADD SWAP1 PUSH2 0x79 SWAP2 SWAP1 PUSH2 0x529 JUMP JUMPDEST PUSH2 0x28C JUMP JUMPDEST STOP JUMPDEST PUSH2 0x88 PUSH2 0x36B JUMP JUMPDEST STOP JUMPDEST CALLVALUE DUP1 ISZERO PUSH2 0x95 JUMPI PUSH0 DUP1 REVERT JUMPDEST POP PUSH2 0xB0 PUSH1 0x4 DUP1 CALLDATASIZE SUB DUP2 ADD SWAP1 PUSH2 0xAB SWAP2 SWAP1 PUSH2 0x529 JUMP JUMPDEST PUSH2 0x3FC JUMP JUMPDEST STOP JUMPDEST CALLER PUSH3 0x278D00 PUSH1 0x2 PUSH0 DUP4 PUSH20 0xFFFFFFFFFFFFFFFFFFFFFFFFFFFFFFFFFFFFFFFF AND PUSH20 0xFFFFFFFFFFFFFFFFFFFFFFFFFFFFFFFFFFFFFFFF AND DUP2 MSTORE PUSH1 0x20 ADD SWAP1 DUP2 MSTORE PUSH1 0x20 ADD PUSH0 KECCAK256 SLOAD PUSH2 0xFF SWAP2 SWAP1 PUSH2 0x58A JUMP JUMPDEST TIMESTAMP LT ISZERO PUSH2 0x141 JUMPI PUSH1 0x40 MLOAD PUSH32 0x8C379A000000000000000000000000000000000000000000000000000000000 DUP2 MSTORE PUSH1 0x4 ADD PUSH2 0x138 SWAP1 PUSH2 0x617 JUMP JUMPDEST PUSH1 0x40 MLOAD DUP1 SWAP2 SUB SWAP1 REVERT JUMPDEST PUSH0 PUSH1 0x1 PUSH0 CALLER PUSH20 0xFFFFFFFFFFFFFFFFFFFFFFFFFFFFFFFFFFFFFFFF AND PUSH20 0xFFFFFFFFFFFFFFFFFFFFFFFFFFFFFFFFFFFFFFFF AND DUP2 MSTORE PUSH1 0x20 ADD SWAP1 DUP2 MSTORE PUSH1 0x20 ADD PUSH0 KECCAK256 SLOAD SWAP1 POP PUSH0 DUP2 GT PUSH2 0x1C4 JUMPI PUSH1 0x40 MLOAD PUSH32 0x8C379A000000000000000000000000000000000000000000000000000000000 DUP2 MSTORE PUSH1 0x4 ADD PUSH2 0x1BB SWAP1 PUSH2 0x67F JUMP JUMPDEST PUSH1 0x40 MLOAD DUP1 SWAP2 SUB SWAP1 REVERT JUMPDEST PUSH1 0x2 PUSH0 CALLER PUSH20 0xFFFFFFFFFFFFFFFFFFFFFFFFFFFFFFFFFFFFFFFF AND PUSH20 0xFFFFFFFFFFFFFFFFFFFFFFFFFFFFFFFFFFFFFFFF AND DUP2 MSTORE PUSH1 0x20 ADD SWAP1 DUP2 MSTORE PUSH1 0x20 ADD PUSH0 KECCAK256 PUSH0 SWAP1 SSTORE PUSH1 0x2 PUSH0 CALLER PUSH20 0xFFFFFFFFFFFFFFFFFFFFFFFFFFFFFFFFFFFFFFFF AND PUSH20 0xFFFFFFFFFFFFFFFFFFFFFFFFFFFFFFFFFFFFFFFF AND DUP2 MSTORE PUSH1 0x20 ADD SWAP1 DUP2 MSTORE PUSH1 0x20 ADD PUSH0 KECCAK256 PUSH0 SWAP1 SSTORE CALLER PUSH20 0xFFFFFFFFFFFFFFFFFFFFFFFFFFFFFFFFFFFFFFFF AND PUSH2 0x8FC DUP3 SWAP1 DUP2 ISZERO MUL SWAP1 PUSH1 0x40 MLOAD PUSH0 PUSH1 0x40 MLOAD DUP1 DUP4 SUB DUP2 DUP6 DUP9 DUP9 CALL SWAP4 POP POP POP POP ISZERO DUP1 ISZERO PUSH2 0x287 JUMPI RETURNDATASIZE PUSH0 DUP1 RETURNDATACOPY RETURNDATASIZE PUSH0 REVERT JUMPDEST POP POP POP JUMP JUMPDEST PUSH0 DUP1 SLOAD SWAP1 PUSH2 0x100 EXP SWAP1 DIV PUSH20 0xFFFFFFFFFFFFFFFFFFFFFFFFFFFFFFFFFFFFFFFF AND PUSH20 0xFFFFFFFFFFFFFFFFFFFFFFFFFFFFFFFFFFFFFFFF AND CALLER PUSH20 0xFFFFFFFFFFFFFFFFFFFFFFFFFFFFFFFFFFFFFFFF AND EQ PUSH2 0x2E2 JUMPI PUSH0 DUP1 REVERT JUMPDEST PUSH0 PUSH1 0x1 PUSH0 DUP4 PUSH20 0xFFFFFFFFFFFFFFFFFFFFFFFFFFFFFFFFFFFFFFFF AND PUSH20 0xFFFFFFFFFFFFFFFFFFFFFFFFFFFFFFFFFFFFFFFF AND DUP2 MSTORE PUSH1 0x20 ADD SWAP1 DUP2 MSTORE PUSH1 0x20 ADD PUSH0 KECCAK256 SLOAD SWAP1 POP DUP2 PUSH20 0xFFFFFFFFFFFFFFFFFFFFFFFFFFFFFFFFFFFFFFFF AND PUSH2 0x8FC DUP3 SWAP1 DUP2 ISZERO MUL SWAP1 PUSH1 0x40 MLOAD PUSH0 PUSH1 0x40 MLOAD DUP1 DUP4 SUB DUP2 DUP6 DUP9 DUP9 CALL SWAP4 POP POP POP POP ISZERO DUP1 ISZERO PUSH2 0x366 JUMPI RETURNDATASIZE PUSH0 DUP1 RETURNDATACOPY RETURNDATASIZE PUSH0 REVERT JUMPDEST POP POP POP JUMP JUMPDEST PUSH0 CALLVALUE GT PUSH2 0x376 JUMPI PUSH0 DUP1 REVERT JUMPDEST TIMESTAMP PUSH1 0x2 PUSH0 CALLER PUSH20 0xFFFFFFFFFFFFFFFFFFFFFFFFFFFFFFFFFFFFFFFF AND PUSH20 0xFFFFFFFFFFFFFFFFFFFFFFFFFFFFFFFFFFFFFFFF AND DUP2 MSTORE PUSH1 0x20 ADD SWAP1 DUP2 MSTORE PUSH1 0x20 ADD PUSH0 KECCAK256 DUP2 SWAP1 SSTORE POP CALLVALUE PUSH1 0x1 PUSH0 CALLER PUSH20 0xFFFFFFFFFFFFFFFFFFFFFFFFFFFFFFFFFFFFFFFF AND PUSH20 0xFFFFFFFFFFFFFFFFFFFFFFFFFFFFFFFFFFFFFFFF AND DUP2 MSTORE PUSH1 0x20 ADD SWAP1 DUP2 MSTORE PUSH1 0x20 ADD PUSH0 KECCAK256 DUP2 SWAP1 SSTORE POP JUMP JUMPDEST PUSH0 DUP1 SLOAD SWAP1 PUSH2 0x100 EXP SWAP1 DIV PUSH20 0xFFFFFFFFFFFFFFFFFFFFFFFFFFFFFFFFFFFFFFFF AND PUSH20 0xFFFFFFFFFFFFFFFFFFFFFFFFFFFFFFFFFFFFFFFF AND CALLER PUSH20 0xFFFFFFFFFFFFFFFFFFFFFFFFFFFFFFFFFFFFFFFF AND EQ PUSH2 0x489 JUMPI PUSH1 0x40 MLOAD PUSH32 0x8C379A000000000000000000000000000000000000000000000000000000000 DUP2 MSTORE PUSH1 0x4 ADD PUSH2 0x480 SWAP1 PUSH2 0x6E7 JUMP JUMPDEST PUSH1 0x40 MLOAD DUP1 SWAP2 SUB SWAP1 REVERT JUMPDEST DUP1 PUSH0 DUP1 PUSH2 0x100 EXP DUP2 SLOAD DUP2 PUSH20 0xFFFFFFFFFFFFFFFFFFFFFFFFFFFFFFFFFFFFFFFF MUL NOT AND SWAP1 DUP4 PUSH20 0xFFFFFFFFFFFFFFFFFFFFFFFFFFFFFFFFFFFFFFFF AND MUL OR SWAP1 SSTORE POP POP JUMP JUMPDEST PUSH0 DUP1 REVERT JUMPDEST PUSH0 PUSH20 0xFFFFFFFFFFFFFFFFFFFFFFFFFFFFFFFFFFFFFFFF DUP3 AND SWAP1 POP SWAP2 SWAP1 POP JUMP JUMPDEST PUSH0 PUSH2 0x4F8 DUP3 PUSH2 0x4CF JUMP JUMPDEST SWAP1 POP SWAP2 SWAP1 POP JUMP JUMPDEST PUSH2 0x508 DUP2 PUSH2 0x4EE JUMP JUMPDEST DUP2 EQ PUSH2 0x512 JUMPI PUSH0 DUP1 REVERT JUMPDEST POP JUMP JUMPDEST PUSH0 DUP2 CALLDATALOAD SWAP1 POP PUSH2 0x523 DUP2 PUSH2 0x4FF JUMP JUMPDEST SWAP3 SWAP2 POP POP JUMP JUMPDEST PUSH0 PUSH1 0x20 DUP3 DUP5 SUB SLT ISZERO PUSH2 0x53E JUMPI PUSH2 0x53D PUSH2 0x4CB JUMP JUMPDEST JUMPDEST PUSH0 PUSH2 0x54B DUP5 DUP3 DUP6 ADD PUSH2 0x515 JUMP JUMPDEST SWAP2 POP POP SWAP3 SWAP2 POP POP JUMP JUMPDEST PUSH0 DUP2 SWAP1 POP SWAP2 SWAP1 POP JUMP JUMPDEST PUSH32 0x4E487B7100000000000000000000000000000000000000000000000000000000 PUSH0 MSTORE PUSH1 0x11 PUSH1 0x4 MSTORE PUSH1 0x24 PUSH0 REVERT JUMPDEST PUSH0 PUSH2 0x594 DUP3 PUSH2 0x554 JUMP JUMPDEST SWAP2 POP PUSH2 0x59F DUP4 PUSH2 0x554 JUMP JUMPDEST SWAP3 POP DUP3 DUP3 ADD SWAP1 POP DUP1 DUP3 GT ISZERO PUSH2 0x5B7 JUMPI PUSH2 0x5B6 PUSH2 0x55D JUMP JUMPDEST JUMPDEST SWAP3 SWAP2 POP POP JUMP JUMPDEST PUSH0 DUP3 DUP3 MSTORE PUSH1 0x20 DUP3 ADD SWAP1 POP SWAP3 SWAP2 POP POP JUMP JUMPDEST PUSH32 0x33302067756E20646F6C6D616469000000000000000000000000000000000000 PUSH0 DUP3 ADD MSTORE POP JUMP JUMPDEST PUSH0 PUSH2 0x601 PUSH1 0xE DUP4 PUSH2 0x5BD JUMP JUMPDEST SWAP2 POP PUSH2 0x60C DUP3 PUSH2 0x5CD JUMP JUMPDEST PUSH1 0x20 DUP3 ADD SWAP1 POP SWAP2 SWAP1 POP JUMP JUMPDEST PUSH0 PUSH1 0x20 DUP3 ADD SWAP1 POP DUP2 DUP2 SUB PUSH0 DUP4 ADD MSTORE PUSH2 0x62E DUP2 PUSH2 0x5F5 JUMP JUMPDEST SWAP1 POP SWAP2 SWAP1 POP JUMP JUMPDEST PUSH32 0x5374616B65206564696C6D6973206D696B7461722062756C756E616D61646900 PUSH0 DUP3 ADD MSTORE POP JUMP JUMPDEST PUSH0 PUSH2 0x669 PUSH1 0x1F DUP4 PUSH2 0x5BD JUMP JUMPDEST SWAP2 POP PUSH2 0x674 DUP3 PUSH2 0x635 JUMP JUMPDEST PUSH1 0x20 DUP3 ADD SWAP1 POP SWAP2 SWAP1 POP JUMP JUMPDEST PUSH0 PUSH1 0x20 DUP3 ADD SWAP1 POP DUP2 DUP2 SUB PUSH0 DUP4 ADD MSTORE PUSH2 0x696 DUP2 PUSH2 0x65D JUMP JUMPDEST SWAP1 POP SWAP2 SWAP1 POP JUMP JUMPDEST PUSH32 0x53616869702073656E20646567696C73696E0000000000000000000000000000 PUSH0 DUP3 ADD MSTORE POP JUMP JUMPDEST PUSH0 PUSH2 0x6D1 PUSH1 0x12 DUP4 PUSH2 0x5BD JUMP JUMPDEST SWAP2 POP PUSH2 0x6DC DUP3 PUSH2 0x69D JUMP JUMPDEST PUSH1 0x20 DUP3 ADD SWAP1 POP SWAP2 SWAP1 POP JUMP JUMPDEST PUSH0 PUSH1 0x20 DUP3 ADD SWAP1 POP DUP2 DUP2 SUB PUSH0 DUP4 ADD MSTORE PUSH2 0x6FE DUP2 PUSH2 0x6C5 JUMP JUMPDEST SWAP1 POP SWAP2 SWAP1 POP JUMP INVALID LOG2 PUSH5 0x6970667358 0x22 SLT KECCAK256 SWAP14 PUSH32 0x8F4B2BEEE56E4F1F5168F4EEF90AD2B69C3FE24A4887CC4CA4F2D56956AB6473 PUSH16 0x6C634300081A00330000000000000000 "
				},
				"gasEstimates": {
					"creation": {
						"codeDepositCost": "370200",
						"executionCost": "24668",
						"totalCost": "394868"
					},
					"external": {
						"OwnerPayBack(address)": "infinite",
						"TransferOwnership(address)": "26925",
						"miniStake()": "44562",
						"payBack()": "infinite"
					}
				},
				"methodIdentifiers": {
					"OwnerPayBack(address)": "25f95ff6",
					"TransferOwnership(address)": "cfaaa266",
					"miniStake()": "ab2a4b36",
					"payBack()": "019f64cc"
				}
			},
			"storageLayout": {
				"storage": [
					{
						"astId": 3,
						"contract": "contracts/mini-stake.sol:MiniStake",
						"label": "owner",
						"offset": 0,
						"slot": "0",
						"type": "t_address"
					},
					{
						"astId": 7,
						"contract": "contracts/mini-stake.sol:MiniStake",
						"label": "amount",
						"offset": 0,
						"slot": "1",
						"type": "t_mapping(t_address,t_uint256)"
					},
					{
						"astId": 11,
						"contract": "contracts/mini-stake.sol:MiniStake",
						"label": "dates",
						"offset": 0,
						"slot": "2",
						"type": "t_mapping(t_address,t_uint256)"
					}
				],
				"types": {
					"t_address": {
						"encoding": "inplace",
						"label": "address",
						"numberOfBytes": "20"
					},
					"t_mapping(t_address,t_uint256)": {
						"encoding": "mapping",
						"key": "t_address",
						"label": "mapping(address => uint256)",
						"numberOfBytes": "32",
						"value": "t_uint256"
					},
					"t_uint256": {
						"encoding": "inplace",
						"label": "uint256",
						"numberOfBytes": "32"
					}
				}
			},
			"userdoc": {
				"kind": "user",
				"methods": {},
				"version": 1
			}
		}
	}
}