{
	"contracts/cheap.sol": {
		"cheaper": {
			"abi": [
				{
					"inputs": [],
					"name": "getpay",
					"outputs": [],
					"stateMutability": "payable",
					"type": "function"
				}
			],
			"devdoc": {
				"kind": "dev",
				"methods": {},
				"version": 1
			},
			"evm": {
				"assembly": "    /* \"contracts/cheap.sol\":57:192  contract cheaper {... */\n  mstore(0x40, 0x80)\n  callvalue\n  dup1\n  iszero\n  tag_1\n  jumpi\n  0x00\n  dup1\n  revert\ntag_1:\n  pop\n  dataSize(sub_0)\n  dup1\n  dataOffset(sub_0)\n  0x00\n  codecopy\n  0x00\n  return\nstop\n\nsub_0: assembly {\n        /* \"contracts/cheap.sol\":57:192  contract cheaper {... */\n      mstore(0x40, 0x80)\n      jumpi(tag_1, lt(calldatasize, 0x04))\n      shr(0xe0, calldataload(0x00))\n      dup1\n      0xf849eeaa\n      eq\n      tag_2\n      jumpi\n    tag_1:\n      0x00\n      dup1\n      revert\n        /* \"contracts/cheap.sol\":81:190  function getpay() public payable {... */\n    tag_2:\n      tag_3\n      tag_4\n      jump\t// in\n    tag_3:\n      stop\n    tag_4:\n        /* \"contracts/cheap.sol\":140:141  0 */\n      0x00\n        /* \"contracts/cheap.sol\":128:137  msg.value */\n      callvalue\n        /* \"contracts/cheap.sol\":128:141  msg.value > 0 */\n      gt\n        /* \"contracts/cheap.sol\":120:150  require(msg.value > 0,\"selam\") */\n      tag_6\n      jumpi\n      mload(0x40)\n      0x08c379a000000000000000000000000000000000000000000000000000000000\n      dup2\n      mstore\n      0x04\n      add\n      tag_7\n      swap1\n      tag_8\n      jump\t// in\n    tag_7:\n      mload(0x40)\n      dup1\n      swap2\n      sub\n      swap1\n      revert\n    tag_6:\n        /* \"contracts/cheap.sol\":81:190  function getpay() public payable {... */\n      jump\t// out\n        /* \"#utility.yul\":7:176   */\n    tag_9:\n        /* \"#utility.yul\":91:102   */\n      0x00\n        /* \"#utility.yul\":125:131   */\n      dup3\n        /* \"#utility.yul\":120:123   */\n      dup3\n        /* \"#utility.yul\":113:132   */\n      mstore\n        /* \"#utility.yul\":165:169   */\n      0x20\n        /* \"#utility.yul\":160:163   */\n      dup3\n        /* \"#utility.yul\":156:170   */\n      add\n        /* \"#utility.yul\":141:170   */\n      swap1\n      pop\n        /* \"#utility.yul\":7:176   */\n      swap3\n      swap2\n      pop\n      pop\n      jump\t// out\n        /* \"#utility.yul\":182:337   */\n    tag_10:\n        /* \"#utility.yul\":322:329   */\n      0x73656c616d000000000000000000000000000000000000000000000000000000\n        /* \"#utility.yul\":318:319   */\n      0x00\n        /* \"#utility.yul\":310:316   */\n      dup3\n        /* \"#utility.yul\":306:320   */\n      add\n        /* \"#utility.yul\":299:330   */\n      mstore\n        /* \"#utility.yul\":182:337   */\n      pop\n      jump\t// out\n        /* \"#utility.yul\":343:708   */\n    tag_11:\n        /* \"#utility.yul\":485:488   */\n      0x00\n        /* \"#utility.yul\":506:572   */\n      tag_16\n        /* \"#utility.yul\":570:571   */\n      0x05\n        /* \"#utility.yul\":565:568   */\n      dup4\n        /* \"#utility.yul\":506:572   */\n      tag_9\n      jump\t// in\n    tag_16:\n        /* \"#utility.yul\":499:572   */\n      swap2\n      pop\n        /* \"#utility.yul\":581:674   */\n      tag_17\n        /* \"#utility.yul\":670:673   */\n      dup3\n        /* \"#utility.yul\":581:674   */\n      tag_10\n      jump\t// in\n    tag_17:\n        /* \"#utility.yul\":699:701   */\n      0x20\n        /* \"#utility.yul\":694:697   */\n      dup3\n        /* \"#utility.yul\":690:702   */\n      add\n        /* \"#utility.yul\":683:702   */\n      swap1\n      pop\n        /* \"#utility.yul\":343:708   */\n      swap2\n      swap1\n      pop\n      jump\t// out\n        /* \"#utility.yul\":714:1133   */\n    tag_8:\n        /* \"#utility.yul\":880:884   */\n      0x00\n        /* \"#utility.yul\":918:920   */\n      0x20\n        /* \"#utility.yul\":907:916   */\n      dup3\n        /* \"#utility.yul\":903:921   */\n      add\n        /* \"#utility.yul\":895:921   */\n      swap1\n      pop\n        /* \"#utility.yul\":967:976   */\n      dup2\n        /* \"#utility.yul\":961:965   */\n      dup2\n        /* \"#utility.yul\":957:977   */\n      sub\n        /* \"#utility.yul\":953:954   */\n      0x00\n        /* \"#utility.yul\":942:951   */\n      dup4\n        /* \"#utility.yul\":938:955   */\n      add\n        /* \"#utility.yul\":931:978   */\n      mstore\n        /* \"#utility.yul\":995:1126   */\n      tag_19\n        /* \"#utility.yul\":1121:1125   */\n      dup2\n        /* \"#utility.yul\":995:1126   */\n      tag_11\n      jump\t// in\n    tag_19:\n        /* \"#utility.yul\":987:1126   */\n      swap1\n      pop\n        /* \"#utility.yul\":714:1133   */\n      swap2\n      swap1\n      pop\n      jump\t// out\n\n    auxdata: 0xa264697066735822122050a4729f10b4d4b2fb8267d80f0e3f7a3a01d5ca103ca35af8392f13c24c205564736f6c634300080a0033\n}\n",
				"bytecode": {
					"linkReferences": {},
					"object": "608060405234801561001057600080fd5b50610118806100206000396000f3fe608060405260043610601c5760003560e01c8063f849eeaa146021575b600080fd5b60276029565b005b600034116069576040517f08c379a000000000000000000000000000000000000000000000000000000000815260040160609060c4565b60405180910390fd5b565b600082825260208201905092915050565b7f73656c616d000000000000000000000000000000000000000000000000000000600082015250565b600060b0600583606b565b915060b982607c565b602082019050919050565b6000602082019050818103600083015260db8160a5565b905091905056fea264697066735822122050a4729f10b4d4b2fb8267d80f0e3f7a3a01d5ca103ca35af8392f13c24c205564736f6c634300080a0033",
					"opcodes": "PUSH1 0x80 PUSH1 0x40 MSTORE CALLVALUE DUP1 ISZERO PUSH2 0x10 JUMPI PUSH1 0x0 DUP1 REVERT JUMPDEST POP PUSH2 0x118 DUP1 PUSH2 0x20 PUSH1 0x0 CODECOPY PUSH1 0x0 RETURN INVALID PUSH1 0x80 PUSH1 0x40 MSTORE PUSH1 0x4 CALLDATASIZE LT PUSH1 0x1C JUMPI PUSH1 0x0 CALLDATALOAD PUSH1 0xE0 SHR DUP1 PUSH4 0xF849EEAA EQ PUSH1 0x21 JUMPI JUMPDEST PUSH1 0x0 DUP1 REVERT JUMPDEST PUSH1 0x27 PUSH1 0x29 JUMP JUMPDEST STOP JUMPDEST PUSH1 0x0 CALLVALUE GT PUSH1 0x69 JUMPI PUSH1 0x40 MLOAD PUSH32 0x8C379A000000000000000000000000000000000000000000000000000000000 DUP2 MSTORE PUSH1 0x4 ADD PUSH1 0x60 SWAP1 PUSH1 0xC4 JUMP JUMPDEST PUSH1 0x40 MLOAD DUP1 SWAP2 SUB SWAP1 REVERT JUMPDEST JUMP JUMPDEST PUSH1 0x0 DUP3 DUP3 MSTORE PUSH1 0x20 DUP3 ADD SWAP1 POP SWAP3 SWAP2 POP POP JUMP JUMPDEST PUSH32 0x73656C616D000000000000000000000000000000000000000000000000000000 PUSH1 0x0 DUP3 ADD MSTORE POP JUMP JUMPDEST PUSH1 0x0 PUSH1 0xB0 PUSH1 0x5 DUP4 PUSH1 0x6B JUMP JUMPDEST SWAP2 POP PUSH1 0xB9 DUP3 PUSH1 0x7C JUMP JUMPDEST PUSH1 0x20 DUP3 ADD SWAP1 POP SWAP2 SWAP1 POP JUMP JUMPDEST PUSH1 0x0 PUSH1 0x20 DUP3 ADD SWAP1 POP DUP2 DUP2 SUB PUSH1 0x0 DUP4 ADD MSTORE PUSH1 0xDB DUP2 PUSH1 0xA5 JUMP JUMPDEST SWAP1 POP SWAP2 SWAP1 POP JUMP INVALID LOG2 PUSH5 0x6970667358 0x22 SLT KECCAK256 POP LOG4 PUSH19 0x9F10B4D4B2FB8267D80F0E3F7A3A01D5CA103C LOG3 GAS 0xF8 CODECOPY 0x2F SGT 0xC2 0x4C KECCAK256 SSTORE PUSH5 0x736F6C6343 STOP ADDMOD EXP STOP CALLER "
				},
				"gasEstimates": {
					"creation": {
						"codeDepositCost": "56000",
						"executionCost": "105",
						"totalCost": "56105"
					},
					"external": {
						"getpay()": "409"
					}
				},
				"methodIdentifiers": {
					"getpay()": "f849eeaa"
				}
			},
			"storageLayout": {
				"storage": [],
				"types": null
			},
			"userdoc": {
				"kind": "user",
				"methods": {},
				"version": 1
			}
		}
	}
}